:020000040800F2
:100000000004002047010008C1010008C3010008E6
:10001000C7010008CB010008CF0100080000000064
:10002000000000000000000000000000D3010008F4
:10003000D50100080000000073410008D901000844
:1000400067010008670100086701000867010008F0
:1000500067010008670100086701000867010008E0
:1000600067010008670100086701000867010008D0
:1000700067010008670100086701000867010008C0
:1000800067010008670100086701000867010008B0
:1000900067010008670100086701000867010008A0
:1000A0006701000867010008670100086701000890
:1000B0006701000867010008670100086701000880
:1000C0006701000867010008670100086701000870
:1000D00067010008112C0008512C0008912C000821
:1000E0006701000867010008670100086701000850
:1000F0006701000867010008670100086701000840
:10010000670100086701000867010008670100082F
:10011000670100086701000867010008670100081F
:10012000670100086701000867010008670100080F
:10013000DFF80CD004F004FB004800478101000800
:1001400010180020704708488047084981F3088844
:1001500007480047FEE7FEE7FEE7FEE7FEE7FEE7AB
:10016000FEE7FEE7FEE7FEE7450100081018002065
:100170003101000810B54FF4A06000F09BFB10BDEA
:1001800010B501F08FF901F079FB04F079F8FFF771
:10019000F1FF02F038FC02F083FC02F0DCFC02F01C
:1001A0009AFF0423044A0021044803F05DFB03F096
:1001B000ADF8002010BD00006C040020D32700081B
:1001C000704700BFFEE700BFFEE700BFFEE700BFCD
:1001D000FEE770477047704710B502F08EFF03F0DE
:1001E000CCF802F0A5FF10BD10B50446C549601A51
:1001F0008C422FD009DCC448201810D0B0F5806F95
:1002000016D0B0F5006F4AD11BE0B0F5806F2AD050
:10021000B0F5006F30D0B0F5406F40D135E001212E
:10022000042000F0F9FA0021042000F0F5FA37E08C
:100230000121082000F0F0FA0021082000F0ECFA7B
:100240002EE00121102000F0E7FA0021102000F03C
:10025000E3FA25E00121202000F0DEFA0021202031
:1002600000F0DAFA1CE00121402000F0D5FA00216C
:10027000402000F0D1FA13E00121802000F0CCFAF8
:100280000021802000F0C8FA0AE00121080200F0F5
:10029000C3FA00214FF4807000F0BEFA00E000BF06
:1002A00000BF10BD10B50121084600F0B5FA0021CD
:1002B000012000F0B1FA10BD2DE9F0410246002501
:1002C0000026002000230024002791F803C00CF032
:1002D0000F0591F803C01CF0100F03D091F802C075
:1002E0004CEA050591F800C0BCF1000F31D014684C
:1002F00000202BE04FF0010C0CFA00F3B1F800C025
:100300000CEA03069E4220D183004FF00F0C0CFA3A
:1003100003F7BC4305FA03FC4CEA040491F803C05C
:10032000BCF1280F06D14FF0010C0CFA00FCC2F80A
:1003300014C00AE091F803C0BCF1480F05D14FF09A
:10034000010C0CFA00FCC2F810C0401C0828D1D3E4
:100350001460B1F800C0BCF1FF0F34DD5468002018
:100360002EE000F1080C4FF0010808FA0CF3B1F888
:1003700000C00CEA03069E4221D183004FF00F0C0F
:100380000CFA03F7BC4305FA03FC4CEA040491F8A9
:1003900003C0BCF1280F05D100F1080C08FA0CF8D5
:1003A000C2F8148091F803C0BCF1480F07D100F1E6
:1003B000080C4FF0010808FA0CF8C2F81080401C35
:1003C0000828CED35460BDE8F0814FF6FF7101805C
:1003D000022181700421C170704702460020936899
:1003E0000B4201D0012000E00020704701468868E0
:1003F00080B2704702460020D3680B4201D0012032
:1004000000E0002070470146C86880B27047016173
:100410007047416170470AB1016100E04161704776
:10042000C16070474FF480320A438261816182610A
:1004300082698269704702460020344B18684FF683
:100440008073184040EA02100843304B1860704730
:100450002F49C8617047F0B50A46002300240021E7
:1004600000252A4E7168C0F3034583B200F440169C
:10047000B6F5401F08D121F07061244E766826F051
:100480007066224F7E6012E000F48016B6F5801F81
:1004900006D1032606FA05F4A14341F0706106E097
:1004A000460D360103FA06F6B14341F0706122B100
:1004B000460D360103FA06F63143144E7160F0BD65
:1004C00030B500228B071C0F0F2303FA04F20F4BE9
:1004D00008338C1053F8243093430C4C08348D109F
:1004E00044F8253023468C1053F824308C07240F11
:1004F00000FA04F42343054C08348D1044F82530E9
:1005000030BD00000014014000F8FEBF00000140B3
:1005100000002042DC48006840F00100DA49086031
:1005200008464068D9490840D749486008460068ED
:10053000D7490840D44908600846006820F4802064
:1005400008600846406820F4FE004860002088608B
:100550007047CD49096821F48031CB4A11601146BA
:10056000096821F480211160B0F5803F03D0B0F517
:10057000802F0ED106E0C449096841F48031C24A97
:10058000116007E0C049096841F4A021BE4A11602A
:1005900000E000BF00BF704710B5014600220023F5
:1005A00000204A11012A02D1B74C236806E0022A32
:1005B00002D1B54C236A01E0B34C636A01F01F021B
:1005C000012494401C4201D0012000E0002010BD15
:1005D00038B5002000900024002500BF3120FFF72F
:1005E000DBFF05460098401C00901DB90098B0F54F
:1005F000A06FF3D13120FFF7CFFF08B1012400E055
:100600000024204638BD014600209F4A106820F093
:10061000F80040EAC100106070479E4908607047CA
:1006200002460020984B586820F47C1042EA0103EF
:100630001843954B586070479649086670470146C5
:100640000020914A506820F0030008435060704732
:100650008D48406800F00C007047014600208A4A2F
:10066000506820F0F00008435060704701460020B9
:10067000854A506820F4E0600843506070470146A6
:100680000020814A506820F4605040EAC100506068
:10069000704729B17C4A527A02437B4B5A7204E07C
:1006A000794A527A8243784B5A7270477A49086085
:1006B000704701460020744A506820F440400843C7
:1006C000506070470021754A11706F4A82F82010FF
:1006D000012802D0042808D103E001216F4A1170DB
:1006E00004E005216D4A117000E000BF00BF7047B3
:1006F0006B49086070476449096A0143624A1162A4
:100700007047674944390860704730B500210022BE
:10071000002400235C4D6D6805F00C0121B1042913
:1007200005D0082923D105E05E4D056022E05D4D2E
:1007300005601FE0544D6D6805F47012022505EB4D
:100740009242514D6D6805F480341CB9564D5543A5
:1007500005600BE04C4D6D6815F4003F03D0524D21
:100760005543056002E04F4D5543056002E04D4D95
:10077000056000BF00BF444D6D6805F0F001090938
:100780004A4D6B5C0568DD4045603F4D6D6805F482
:10079000E061090A454D6B5C4568DD4085603A4D76
:1007A0006D6805F46051C90A404D6B5C4568DD40D9
:1007B000C560354D6D6805F44041890B3C4D6B5C5F
:1007C000C568B5FBF3F5056130BD29B12E4A526904
:1007D00002432D4B5A6104E02B4A526982432A4B53
:1007E0005A61704729B1284A92690243264B9A619F
:1007F00004E0254A92698243234B9A61704729B1EC
:10080000214AD2690243204BDA6104E01E4AD269D0
:1008100082431D4BDA61704729B11B4AD2680243FB
:10082000194BDA6004E0184AD2688243164BDA604A
:10083000704729B1144A12690243134B1A6104E04C
:10084000114A12698243104B1A61704714494039AA
:10085000086070470F49C86470470B49C8717047FA
:100860000948406A40F08070074948627047014675
:100870000020054A92680A4201D0012000E00020D1
:100880007047014988727047001002400000FFF86D
:10089000FFFFF6FE00004242D80042422010024014
:1008A0008004424200127A0000093D00000000204E
:1008B0001000002031490143314A1160704770B582
:1008C000002100230F22C4780CB32D4C246804F4BB
:1008D000E064C4F5E064210AC1F10403CA4044782D
:1008E00004FA03F18478144021430901254C067869
:1008F000A155047804F01F050124AC4005786D1162
:100900004FF0E02606EB8505C5F8004109E00478C4
:1009100004F01F050124AC401B4D0678761145F804
:10092000264070BD194A0A400243154B1B1F1A602E
:10093000704739B1124A121D12680243104B1B1D39
:100940001A6006E00E4A121D126882430C4B1B1DF2
:100950001A607047042808D14FF0E021096941F07E
:1009600004014FF0E022116107E04FF0E021096936
:1009700021F004014FF0E022116170470000FA05F8
:100980000CED00E000E400E080E100E080FFFF1FEC
:1009900010B50446D749601A8C422BD006DCD648E5
:1009A000201813D0B0F5806F38D119E0B0F5806F02
:1009B0002AD0B0F56C4F31D101218803FFF72CFF0D
:1009C00000214FF48040FFF727FF28E00121480471
:1009D000FFF72FFF00214FF40030FFF72AFF1EE042
:1009E00001218804FFF725FF00214FF48020FFF745
:1009F00020FF14E00121C804FFF71BFF00214FF482
:100A00000020FFF716FF0AE001210805FFF711FF9C
:100A100000214FF48010FFF70CFF00E000BF00BF83
:100A200010BD2DE9F04786B005460E460024A246CB
:100A300000BF00BF00272F462C8A4CF6FF700440F1
:100A4000F08804432C82AC894EF6F3100440B08841
:100A500031890843718908430443AC81AC8A4FF65D
:100A6000FF400440B0890443AC8201A8FFF74DFE6B
:100A7000A248874202D1DDF810A001E0DDF80CA009
:100A80000AEBCA0000EB0A1031688900B0FBF1F8EC
:100A90006420B8FBF0F004012009642101FB1089F7
:100AA000322000EB0910B0FBF1F000F00F0004431E
:100AB0002C8106B0BDE8F0874FF41651016000218B
:100AC0008180C18001810C21418100218181704799
:100AD00010B502460020108A4FF2FF0318400B8821
:100AE0004C8823438C882343CC88234318431082AB
:100AF00010BD0021018041808180C180704721B1FB
:100B0000828942F40052828104E082894DF6FF73AB
:100B10001A4082817047F0B5034600240026002564
:100B200000201846C1F3421401F01F06012707FAFE
:100B300006F5012C01D10C3004E0022C01D110305B
:100B400000E014301AB107682F43076002E007681D
:100B5000AF430760F0BD1AB1838A0B43838202E082
:100B6000838A8B4383827047028A4FF6F0731A4060
:100B70000282028A0A430282704782894FF2FF731F
:100B80001A40828182890A438281704721B1828919
:100B900042F00202828104E082894FF6FD731A401E
:100BA00082817047028A4FF6DF731A400282028AFE
:100BB0000A430282704721B1028A42F480420282D3
:100BC00004E0028A4BF6FF731A4002827047C1F3B9
:100BD00008028280704701468888C0F30800704789
:100BE000818941F0010181817047028BD2B2028379
:100BF000028B42EA012202837047028B02F47F4299
:100C00000283028B0A430283704721B1828A42F039
:100C10002002828204E0828A4FF6DF731A408282C9
:100C2000704721B1828A42F01002828204E0828AF7
:100C30004FF6EF731A408282704721B1828A42F0E8
:100C40000802828204E0828A4FF6F7731A40828299
:100C50007047828A4FF6FB731A408282828A0A4367
:100C60008282704721B1828A42F00202828204E0CD
:100C7000828A4FF6FD731A40828270470246002036
:100C800013880B4201D0012000E000207047CA43C6
:100C90000280704770B502460B46002400210025F3
:100CA0000020C3F3421503F01F01012606FA01F1EB
:100CB000012D02D19689314006E0022D02D1168A1B
:100CC000314001E0968A31401C12012606FA04F4F4
:100CD0001688344011B10CB1012000E0002070BD35
:100CE00010B5002200230A1201249440A3B2DC4371
:100CF000048010BD004C004000BCFFBF0038014024
:100D000010B50446F748201806D0B0F5806F0DD016
:100D1000B0F5C05F1ED113E001214802FFF77CFD52
:100D200000214FF40070FFF777FD14E001218802E5
:100D3000FFF772FD00214FF48060FFF76DFD0AE0C0
:100D40000121C803FFF768FD00214FF40040FFF7C1
:100D500063FD00E000BF00BF10BD30B502460020BB
:100D600000235068E04C20400D790C6844EA0524CB
:100D7000204350609068DD4C2040D1E902542C4360
:100D80004D7944EA450420439060D06A20F4700015
:100D90000C7C641E1C43E3B240EA0350D06230BDB9
:100DA00000210160017141718160C1600121017404
:100DB000704721B1826842F00102826003E08268DC
:100DC00022F001028260704721B1826842F4807291
:100DD000826003E0826822F480728260704710B5FE
:100DE0000023CBB21AB144681C43446002E044685B
:100DF0009C43446010BD816841F0080181607047E8
:100E0000014600208A6812F0080F01D0012000E09E
:100E100000207047816841F00401816070470146FD
:100E200000208A6812F0040F01D0012000E00020A9
:100E3000704721B1826842F4A002826003E08268B8
:100E400022F4A00282607047014600208A6812F4F2
:100E5000800F01D0012000E00020704710B50A4645
:100E600000210023416821F46041531E41EA4331CF
:100E7000416010BD21B1426842F40062426003E06B
:100E8000426822F4006242607047F0B504460D46A5
:100E900000200021092D11DDE068A5F10A0606EB0E
:100EA0004607072606FA07F18843A5F10A0606EB6E
:100EB000460603FA06F10843E0600CE0206905EB02
:100EC0004507072606FA07F1884305EB450603FAAE
:100ED00006F108432061072A0FDA606B561E06EB05
:100EE00086071F2606FA07F18843561E06EB86067C
:100EF00005FA06F10843606322E00D2A0FDA206B41
:100F0000D61F06EB86071F2606FA07F18843D61F71
:100F100006EB860605FA06F10843206310E0E06A56
:100F2000A2F10D0606EB86071F2606FA07F1884395
:100F3000A2F10D0606EB860605FA06F10843E0620B
:100F4000F0BD21B1826842F48012826003E08268C1
:100F500022F48012826070470146C86C80B27047EC
:100F600063480068704721B1426842F48062426081
:100F700003E0426822F480624260704721B1426817
:100F800042F48052426003E0426822F480524260A0
:100F900070470A460021816821F4E04111438160D5
:100FA000704721B1826842F40042826003E08268A7
:100FB00022F400428260704721B1826842F402123A
:100FC000826003E0826822F4021282607047014668
:100FD00000208A6812F4001F01D0012000E00020E8
:100FE0007047F0B504461546002000220026092966
:100FF00011DDE068A1F10A0707EB470C072707FAA4
:101000000CF29043A1F10A0707EB470703FA07F236
:101010001043E0600CE0206901EB410C072707FA60
:101020000CF2904301EB410703FA07F210432061F1
:10103000A06BC0F30156EF1C06F1010CA7EB0C07E7
:1010400007EB870C1F2707FA0CF29043EF1C06F101
:10105000010CA7EB0C0707EB870701FA07F2104317
:10106000A063F0BD10B50A4600210023816B21F476
:101070004011531E41EA0351816310BD4250704735
:1010800002465018806A80B270470A4600214168C3
:10109000184B1940114341607047416282627047AA
:1010A0000A460021416821F01F0111434160704749
:1010B00040B10F494439096841F400010C4A443AEF
:1010C000116007E00A494439096821F40001084A1F
:1010D000443A116070470246002013680B420BD05F
:1010E00001200AE000DCFEBFFFFEF0FFFDF7F1FF8C
:1010F0004C240140FFFD3FFF00207047CA430260BF
:10110000704770B502460020002300240B1255687A
:10111000CEB205EA060415681D4202D00CB10120CA
:1011200000E0002070BD00220A12D3430360704724
:10113000016821F0010101600021016041608160CE
:10114000C160864A811A90425BD012DC844AA0EBCF
:10115000020190423AD007DC824941181BD0142981
:1011600022D028297AD128E0142938D0282975D10D
:101170003EE0B1F56C7F5BD006DCB1F5627F49D013
:10118000B1F5677F6AD14CE0B1F5717F57D0B1F509
:10119000767F63D15BE072494439496841F00F01C1
:1011A0006F4A443A51605AE06D494439496841F008
:1011B000F0016B4A443A516051E069494439496849
:1011C00041F47061664A443A516048E064494439E8
:1011D000496841F47041624A443A51603FE06049D5
:1011E0004439496841F470215D4A443A516036E01F
:1011F0005B494439496841F47001594A443A5160A5
:101200002DE057494439496841F07061544A443AE5
:10121000516024E05449096841F00F01524A1160BD
:101220001DE05149096841F0F0014F4A116016E094
:101230004D49096841F470614B4A11600FE04A4919
:10124000096841F47041484A116008E006E04649E7
:10125000096841F47021444A116000E000BF00BFFA
:10126000704710B50022026847F6F0739A430C6A83
:101270008B6823430C6923434C6923438C692343C4
:10128000CC6923434C6A23438C6A23431A4302608C
:10129000CB6843600B6883604B68C36010BD00215E
:1012A000016041608160C160016141618161C16132
:1012B000016241628162704721B1026842F001021D
:1012C000026003E0026822F00102026070471AB176
:1012D00003680B43036002E003688B4303607047BD
:1012E0000146486880B2704701460020002211F094
:1012F000805F03D01C4B1B1F1A6802E0184B443B55
:101300001A680A4201D0012000E00020704710F066
:10131000805F02D01449086002E0114944394860F6
:10132000704701460020002211F0805F03D00E4B71
:101330001B1F1A6802E00A4B443B1A680A4201D09C
:10134000012000E00020704710F0805F02D00649C5
:10135000086002E00249443948607047800002405A
:1013600044000240F8FFFDBF040402400CB5002019
:10137000019000904748006840F48030454908607B
:1013800000BF4448006800F4003000900198401C01
:101390000190009818B90198B0F5A06FF1D13D48BF
:1013A000006810F4003F02D00120009001E000200E
:1013B00000900098012843D13748006840F01000A1
:1013C000354908600846006820F0030008600846B8
:1013D000006840F0020008602E4840682D494860CF
:1013E0000846406848600846406840F480604860AD
:1013F0000846406820F47C1048600846406840F485
:10140000E81048600846006840F08070086000BF3F
:101410002048006810F0007FFAD01E48406820F095
:1014200003001C4948600846406840F002004860DC
:1014300000BF1848406800F00C000828F9D101E00E
:1014400000BFFEE70CBD10B5FFF790FF10BD10B553
:101450001048006840F001000E49086008464068E6
:101460000E4908400B494860084600680C4908408E
:10147000084908600846006820F480200860084693
:10148000406820F4FE00486000208860FFF7DBFF22
:1014900010BD000000100240002002400000FFF8D4
:1014A000FFFFF6FE10B5FFF7D2FF00F031F810BDD8
:1014B00030B5144800684FF47A72B0FBF2F1B1F124
:1014C000807F00D31DE021F07F40401E4FF0E022DE
:1014D000506150170F22002807DA13071D0E0A4B20
:1014E00000F00F04241F1D5503E013071C0E074BCB
:1014F0001C5400BF00204FF0E022906107201061D3
:1015000000BF30BDF849000818ED00E000E400E03D
:1015100008B501210820FFF765F94FF22000ADF86A
:10152000000010208DF8030003208DF802006946AA
:101530002F48FEF7C1FE4FF440412D48FEF769FFEA
:101540004FF440512A48FEF762FF4FF4805128487B
:10155000FEF75FFF01211020FFF744F94FF4005020
:10156000ADF8000010208DF8030003208DF8020074
:1015700069462048FEF7A0FE4FF400511D48FEF7D3
:1015800046FF8020ADF8000048208DF80300694632
:101590001748FEF791FE4FF48070ADF80000482028
:1015A0008DF8030069461248FEF786FE4FF400707E
:1015B000ADF8000048208DF8030069460C48FEF79E
:1015C0007BFE01210420FFF70DF98020ADF800001B
:1015D00010208DF8030003208DF8020069460648AC
:1015E000FEF76AFE80210448FEF713FF08BD0000E5
:1015F000000C0140001001400008014008B5012125
:101600000820FFF7EFF84020ADF8000010208DF81B
:10161000030003208DF8020069468548FEF74CFE62
:1016200040218348FEF7F3FE08BD08B54020ADF821
:10163000000048208DF8030069467D48FEF73CFE17
:1016400008BD08B54020ADF8000010208DF803005B
:1016500003208DF8020069467548FEF72DFE08BD8F
:1016600010B5FFF7EEFF40217148FEF7D2FE40F2C1
:10167000EE2000F0E1F840216D48FEF7C8FE0F2093
:1016800000F0DAF810BD10B50024FFF7CEFF04E03B
:10169000601CC4B2012000F0CFF840216448FEF77E
:1016A0009CFE08B1642CF3DB642C01DB012010BD2F
:1016B000002404E0601CC4B2012000F0BDF8402109
:1016C0005B48FEF78AFE08B9F02CF3DBF02C01DB57
:1016D0000120ECE70020EAE710B5FFF7B2FF402158
:1016E0005348FEF796FE0A2000F0A6F8FFF79DFF8C
:1016F00040214F48FEF771FE012801D1012400E08E
:1017000000242D2000F098F8204610BD70B500266A
:10171000002408E0FFF7E0FF054605FA04F0304337
:10172000C6B2601CC4B2082CF4DB304670BD70B584
:101730000446FFF786FF002522E004F0010664104E
:1017400076B140213A48FEF764FE082000F074F8B4
:1017500040213748FEF75BFE3A2000F06DF80DE0BF
:1017600040213348FEF755FE462000F065F8402141
:101770002F48FEF74CFE022000F05EF8681CC5B250
:10178000082DDADB70BD10B5FFF76AFFFFF77BFFAE
:10179000CC20FFF7CCFF4420FFF7C9FF10BD10B5E8
:1017A000FFF72CFFFFF75CFFFFF76DFF10BD2DE982
:1017B000F05FFFF755FFFFF766FFCC20FFF7B7FF9D
:1017C0004420FFF7B4FFFFF74BFFFFF75CFFCC208F
:1017D000FFF7ADFFBE20FFF7AAFFFFF797FF834695
:1017E000FFF794FF82464FEA0A2004B244EA0B0452
:1017F000002C0DDAE043401C02F0B4FE0746002244
:101800000C4B02F03DFE054602F0BDFE81460BE0AA
:10181000204602F0A7FE07460022064B02F030FEEB
:10182000054602F0B0FE81464846BDE8F09F000044
:10183000000C01400000B03F00BF062100E000BFE7
:101840000A00A1F1010399B2F9D1421E92B210002F
:10185000F3D1704710B5044600BFFA20FFF7ECFF44
:10186000FA20FFF7E9FFFA20FFF7E6FFFA20FFF77B
:10187000E3FF601E80B20400EFD110BD00B591B04F
:1018800001210846FEF7A1FF01214802FEF7AAFF49
:1018900001218802FEF7A6FF0320ADF82C000020EE
:1018A0008DF82F000BA95648FEF706FD5548FFF7A7
:1018B0003FFC5548009055480190002002900220BE
:1018C0000390002004908020059080000690800006
:1018D0000790202008900002099000200A90694695
:1018E0004848FFF7BEFC01214648FFF7E5FC4FF4EE
:1018F000C0200C9001208DF834008DF835004FF495
:1019000060200E9000200F9001208DF840000CA95F
:101910003D484C38FFF721FA0223012208213A48BA
:101920004C38FFF7B2FA012137484C38FFF74CFA30
:101930004FF4C0200C9000208DF8340001208DF869
:1019400035004FF460200E9000200F9001208DF89C
:1019500040000CA92E48FFF700FA022301220921BA
:101960002B48FFF792FA01212948FFF72DFA0121B0
:1019700025484C38FFF71DFA23484C38FFF73BFA4F
:1019800000BF21484C38FFF73BFA0028F9D11E4828
:101990004C38FFF73FFA00BF1B484C38FFF73FFABF
:1019A0000028F9D1012118484C38FFF742FA0121EB
:1019B0001748FFF7FEF91648FFF71DFA00BF144855
:1019C000FFF71EFA0028FAD11148FFF723FA00BFEB
:1019D0000F48FFF724FA0028FAD101210C48FFF73D
:1019E00028FA11B000BD014621B908480068C0F3CB
:1019F0000710704705480068C0F30750F9E700007A
:101A0000000C0140080002404C2401401800002056
:101A10000028014045F25552084B1A601A465060A2
:101A200091604AF6AA221A604CF6CC421A607047BE
:101A30004AF6AA20014908607047000000300040C3
:101A400010B58021FE48FEF7C8FC58B90A20FFF700
:101A500001FF8021FA48FEF7C0FC30B90120F949A6
:101A6000086002E00020F7490860F6480068012895
:101A700021D10102F248FEF7B0FC90B90A20FFF72D
:101A8000E9FE4FF48071EE48FEF7A7FC98B90120FB
:101A9000ED490860ED4908608103E948FEF7B7FCAD
:101AA00009E00020E8490860E84908604FF48041F7
:101AB000E348FEF7AEFCE3480068012821D141026B
:101AC000DF48FEF78AFC90B90A20FFF7C3FE4FF407
:101AD0000071DB48FEF781FC98B90120DC49086001
:101AE000DC490860C103D648FEF791FC09E00020FC
:101AF000D7490860D74908604FF40041D048FEF745
:101B000088FC10BD10B5C82305220021084602F04C
:101B100043FAD1A002F074FEC823002211461046F9
:101B200002F03AFACDA002F06BFE642300221146C7
:101B3000104602F031FACDA002F062FE00230A2224
:101B40001946184602F028FAD3A002F059FEC8231D
:101B500002220021084602F01FFAD3A001F0C0F8CB
:101B60004FF4FA7301220021084602F015FADAA0B8
:101B700002F046FE4FF4FA7300221146104602F0BE
:101B80000BFAD9A002F03CFE4FF4FA7308220021B0
:101B9000084602F001FA10BDFFF78AFC08E0FFF7E3
:101BA00047FF4FF4FA7301220021084602F0F4F9CE
:101BB000F5E7FFF77DFC38E0CE480068012814D136
:101BC0000020CC49086008E0CB480068401CCA49A6
:101BD00008600221002002F06AFBC7480068B0F5E7
:101BE000967FF1DB0020C4490860C44800680128E2
:101BF00014D10020C149086008E0BF480068401CBB
:101C0000BD4908600221012002F051FBBA4800687A
:101C1000B0F5967FF1DB0020B74908604FF496736A
:101C200000221146104602F0B7F9C5E7FFF740FC65
:101C300008E0FFF705FF4FF4FA7300221146104643
:101C400002F0AAF9F5E7FFF733FC2AE08021AC485F
:101C5000FEF7DDFB0A2300221146104602F09CF934
:101C60000020A84908600BE0A748A64A126881181E
:101C7000A64801F02DF8A3480068401CA14908605F
:101C8000A04800680828EFDB00209E4908608021FA
:101C90009B48FEF7BEFB962302220021084602F075
:101CA0007BF9D3E7FFF704FCF5E3994800780128B6
:101CB0007DD1642300221146104602F06DF9002008
:101CC0009349087093A1954802F0BCFB50B10120E4
:101CD000934908600020934908604FF400519248EE
:101CE000FEF797FB8D480078542812D18B48407836
:101CF00043280ED18948807850280AD1012088498C
:101D000008600020874908604FF400518648FEF7BC
:101D100080FB86A1814802F095FB38B14FF48051D9
:101D20004748FEF776FB01208349086083A17B4882
:101D300002F088FB38B14FF480514148FEF767FB51
:101D400000207D49086080A1744802F07BFB38B117
:101D50004FF400513A48FEF75CFB01207D490860D2
:101D60007DA16E4802F06EFB38B14FF4005134484B
:101D7000FEF74DFB0020774908607AA1674802F022
:101D800061FB70B14FF400412D48FEF740FB01208C
:101D90002E4908602F4802680846016874A002F0C6
:101DA0002FFD76A15D4802F04DFB80B100E0AAE274
:101DB0004FF400412248FEF72CFB00202349086025
:101DC000244802680846016869A002F019FD6EA166
:101DD000524802F037FB20B34FF400411848FEF799
:101DE00016FB01201B490860084602681748016875
:101DF0005FA002F005FD4FF4967301220021084612
:101E000002F0CAF84FF400410D48FEF702FB002033
:101E100010490860084602680C48016854A002F0A6
:101E2000EFFC5CA13D4802F00DFB38B14FF40041DE
:101E30000348FEF7EEFA00200649B1E0B1E00000E9
:101E4000000C0140440000203C0000204001002024
:101E500040000020440100202B2B2B0041542B4339
:101E6000574D4F44453D310D0A00000041542B436E
:101E7000574A41503D2266656E677975616E5F779E
:101E80006C77222C2266656E677975616E5F776C60
:101E900077220D0A0000000041542B4349504D5554
:101EA000583D300D0A00000041542B534156455413
:101EB00052414E534C494E4B3D312C223131322E42
:101EC00037342E39382E3339222C383634372C22F9
:101ED000544350220D0A000041542B4349504D4FAA
:101EE00044453D310D0A000041542B5253540D0A14
:101EF00000000000900100208C01002094010020CF
:101F000000080140AC0100202C01002000440040EA
:101F1000B80100205443504F4B000000BB0100208B
:101F2000980100209C010020001001403230303028
:101F300039393237373A3100380100203230303009
:101F400039393237373A3000323030303939323778
:101F5000383A31003C0100203230303039393237E4
:101F6000383A30003230303039393237393A31008E
:101F70005325642C25642C4500000000323030309D
:101F800039393237393A3000323030303939323835
:101F9000303A31003230303039393238303A30006E
:101FA0000860FCA1FE4802F04DFA98B34FF40051CE
:101FB000FC48FEF72EFA0020FB4908600BE0FB48C6
:101FC000F94A12688118FA4800F082FEF648006863
:101FD000401CF5490860F44800680728EFD34FF427
:101FE000FA7300221146104601F0D6FF0020EE4998
:101FF00008600BE0ED48EC4A12688118EC4800F0EC
:1020000067FEE9480068401CE7490860E648006848
:102010000728EFD3E7A1E24802F014FA98B34FF48F
:102020000051E048FEF7F3F90020DF4908600BE0BB
:10203000E348DD4A12688118DD4800F049FEDA48BD
:102040000068401CD8490860D74800680728EFD3CB
:102050004FF4FA7300221146104601F09DFF002054
:10206000D14908600BE0D648CF4A12688118D048A1
:1020700000F02EFECC480068401CCB490860CA48DE
:1020800000680728EFD3CFA1C54802F0DBF970B391
:102090000020C54908600BE0CD48C34A126881188A
:1020A000C34800F015FEC0480068401CBE490860E7
:1020B000BD4800680728EFD34FF4FA730022114699
:1020C000104601F069FF0020B74908600BE0C048E6
:1020D000B54A12688118B64800F0FAFDB2480068A7
:1020E000401CB1490860B04800680728EFD3B9A187
:1020F000AB4802F0A7F970B30020AB4908600BE0D1
:10210000B748A94A12688118A94800F0E1FDA6481D
:102110000068401CA4490860A34800680728EFD362
:102120004FF4FA7300221146104601F035FF0020EB
:102130009D4908600BE0AA489B4A126881189C4898
:1021400000F0C6FD98480068401C97490860964812
:1021500000680728EFD3A3A1914802F073F970B388
:102160000020914908600BE0A1488F4A126881184D
:102170008F4800F0ADFD8C480068401C8A4908601B
:10218000894800680728EFD34FF4FA7300221146FC
:10219000104601F001FF0020834908600BE09448DD
:1021A000814A12688118824800F092FD7E480068DA
:1021B000401C7D4908607C4800680728EFD38DA14A
:1021C000774802F03FF970B30020774908600BE0D0
:1021D0008B48754A12688118754800F079FD72487D
:1021E0000068401C704908606F4800680728EFD3FA
:1021F0004FF4FA7300221146104601F0CDFE002084
:10220000694908600BE07E48674A1268811868488F
:1022100000F05EFD64480068401C63490860624845
:1022200000680728EFD377A15D4802F00BF970B37F
:1022300000205D4908600BE075485B4A1268811810
:102240005B4800F045FD58480068401C564908604E
:10225000554800680728EFD34FF4FA73002211465F
:10226000104601F099FE00204F4908600BE06848D5
:102270004D4A126881184E4800F02AFD4A4800680D
:10228000401C49490860484800680728EFD361A10D
:10229000434802F0D7F870B30020434908600BE0D0
:1022A0005F48414A12688118414800F011FD3E48DC
:1022B0000068401C3C4908603B4800680728EFD391
:1022C0004FF4FA7300221146104601F065FE00201B
:1022D000354908600BE05248334A12688118344887
:1022E00000F0F6FC30480068401C2F4908602E487A
:1022F00000680728EFD34B480178294802F097F887
:1023000000204849087048480078012841D1C82376
:1023100000221146104601F03FFE0020424908709D
:10232000AFF2F8311E4802F08DF820B14FF4804131
:102330001C48FEF76EF83DA1194802F083F810B171
:1023400000203B4908603B48007801280BD1394800
:102350004078032807D1374800793649C97800EB1F
:1023600001203549088035A10D4802F06BF878B19D
:1023700033A10B4802F066F850B12D4800680128DF
:102380006BD12EA1064802F05DF8841C1A225BE096
:1023900063E08FE13230303131303537373A310058
:1023A000BB010020000C0140A001002054010020CE
:1023B000004400403230303131303537373A300068
:1023C0005B0100203230303131303537383A31005E
:1023D000620100203230303131303537383A300048
:1023E000690100203230303131303537393A31002F
:1023F000700100203230303131303537393A300019
:10240000770100203230303131303538303A310008
:102410007E0100203230303131303538303A3000F2
:1024200085010020EC020020B9010020562C00009C
:10243000680000201F020020B4010020412C000091
:102440004750524D430000002146F74802F00CF877
:102450000020F5498876F5490860F54800783A2863
:1024600020D1F348807801281CD1F14880790128D7
:1024700003D10020EF49086005E0ED48807910B9EC
:102480000120EC490860EA48C079012804D1002005
:10249000E949086006E09AE1E548C07910B90120F1
:1024A000E5490860E24800783A281FD1E048807882
:1024B00002281BD1DE488079012803D10020DF49A2
:1024C000086005E0DA48807910B90120DB4908602E
:1024D000D748C079012803D10020D949086005E018
:1024E000D348C07910B90120D5490860D5A1D0489A
:1024F00001F0A8FFA8B14FF48041D548FDF787FF50
:102500008021D448FDF783FF0A230022114610469C
:1025100001F042FDD0A000F0F6FB8021CD48FDF790
:1025200078FFD2A1C24801F08DFFA8B14FF48041DD
:10253000C748FDF76EFF8021C648FDF768FF0A23F4
:1025400000221146104601F027FDCBA000F0DBFB76
:102550008021C048FDF75DFFAFF23061B44801F063
:1025600071FFA8B14FF40041B948FDF750FF802139
:10257000B848FDF74CFF0A2300221146104601F02F
:102580000BFDC3A000F0BFFB8021B248FDF741FF67
:10259000AFF25861A64801F055FFA8B14FF40041D1
:1025A000AB48FDF736FF8021AA48FDF730FF0A232C
:1025B00000221146104601F0EFFCBAA000F0A3FB88
:1025C0008021A448FDF725FFAFF28461984801F00F
:1025D00039FFA8B14FF400419D48FDF71AFF802153
:1025E0009C48FDF714FF0A2300221146104601F013
:1025F000D3FCB2A000F087FB80219648FDF709FFCD
:10260000AFF2AC618A4801F01DFFA8B14FF48051D0
:102610008F48FDF7FCFE80218E48FDF7F8FE0A2367
:1026200000221146104601F0B7FCA4A000F06BFB9D
:1026300080218848FDF7EDFEAFF2D8617C4801F0BB
:1026400001FFA0B120218248FDF7E3FE80218148EF
:10265000FDF7DDFE0A2300221146104601F09CFC26
:1026600096A000F050FB80217A48FDF7D2FEAFF231
:10267000F4616F4801F0E6FEA0B120217448FDF737
:10268000C6FE80217348FDF7C2FE0A2300221146D0
:10269000104601F081FC89A000F035FB80216D48D7
:1026A000FDF7B7FE88480178884801F0C0FE002099
:1026B000854908708648007801287CD1C82300220B
:1026C0001146104601F068FC002081490870AFF205
:1026D000A471574801F0B6FE38B14FF480515C4800
:1026E000FDF797FE012053490860AFF2B0715048E2
:1026F00001F0A8FE38B14FF480515548FDF787FE30
:1027000000204C490860AFF2C071494801F09AFEC0
:1027100038B14FF400514E48FDF77BFE0120464989
:102720000860AFF2CC71424801F08CFE38B14FF432
:1027300000514748FDF76BFE00203F490860AFF2AB
:10274000DC713B4801F07EFE38B14FF480414048D7
:10275000FDF75DFE012039490860AFF2E0713448B1
:1027600001F070FE38B14FF480413948FDF751FE59
:10277000002032490860AFF2F0712D4801F062FE8E
:1027800038B14FF400413248FDF741FE01202C4999
:102790000860AFF60001264801F054FE38B14FF44E
:1027A00000412B48FDF735FE0020254908604948C7
:1027B00001781F4800E004E001F039FE002045499F
:1027C0000870642300221146104601F0E5FBFFF774
:1027D0006CBAFEF76DFE40F259610420FFF71AF95A
:1027E00005233D4A0021AFF6433001F03DF80823B0
:1027F0003A4A0021AFF6B13001F036F80A23384AE0
:102800000021AFF6D73001F02FF80C23354A002114
:10281000AFF6614001F028F80F23334A0021AFF6EC
:10282000874001F021F8C4E0480000206800002043
:10283000BB010020380100203C01002040010020A5
:10284000440100203230303039393237363A3100E5
:10285000000C0140000801400D0A5245434549560D
:102860004520423134204F4E210D0A0032303030A5
:1028700039393237363A30000D0A52454345495608
:102880004520423134204F4646210D0A0000000009
:102890000D0A5245434549564520423135204F4E99
:1028A000210D0A000D0A5245434549564520423143
:1028B00035204F4646210D0A000000005245434591
:1028C000495645204F4B2100ED0200201F020020F9
:1028D000BA010020EC020020AC050020EC0600202C
:1028E0002C0800206C090020AC0A00206423082278
:1028F0000021084601F050FB2E480068401C2D497D
:1029000008602D48006818B92C492DA001F078FF07
:10291000642308220021084601F03EFBFEF73FFF3A
:1029200098B9FEF744FF2749086027492548006801
:1029300001F050FE09D225492248006801F040FE0E
:1029400003D220480068224908600020FFF74BF8B6
:10295000204908700120FFF746F81F490870164803
:102960000068012807D11D4802681D480168AFF6BC
:10297000002001F045FF0F480068032819D9002006
:102980000D4908600B4908604FF400511548FDF7E8
:102990003EFD4FF480511448FDF739FD002301221C
:1029A0001946184601F0F8FA4FF480510E48FDF729
:1029B00030FD9BE79C0100209801002020000020B2
:1029C00025730000A8010020000020C10000C842BB
:1029D000A4010020B0010020B1010020440100202A
:1029E0004001002000100140000C014000BF704772
:1029F00000BFCE4A128812F0400FFAD0C2B2CB4BC1
:102A00001B1D1A80704700B587B0012144F20400F5
:102A1000FDF7E8FE4FF40070ADF8180018208DF8AF
:102A20001B0003208DF81A0006A9C148FDF744FCDD
:102A30004FF48060ADF8180004208DF81B0006A943
:102A4000BB48FDF739FC25208DF8040000208DF8E7
:102A5000050001208DF806008DF8070001A8FDF79C
:102A60002EFF4FF4E13002900020ADF80C00ADF8DD
:102A70000E00ADF81000ADF814000C20ADF81200F7
:102A800002A9AA48FDF7CDFF012240F22551A7482F
:102A9000FEF741F80121A548FEF731F807B000BD67
:102AA00000B589B00121A348FDF7A9FEA248FDF7B2
:102AB0006FFF0420ADF8200018208DF823000320BC
:102AC0008DF8220008A99A48FDF7F6FB0820ADF81A
:102AD000200004208DF8230008A99548FDF7ECFBA1
:102AE00026208DF80C0000208DF80D0002208DF8B6
:102AF0000E0001208DF80F0003A8FDF7E0FE4FF453
:102B0000165004900020ADF81400ADF81600ADF892
:102B10001800ADF81C000C20ADF81A0004A9864876
:102B2000FDF77FFF0020ADF80400ADF80600ADF81A
:102B30000800ADF80A0001A97F48FDF7C9FF01228E
:102B400040F225517C48FDF7E6FF01217A48FDF768
:102B5000D6FF09B000BD00B589B001217748FDF767
:102B60004EFE7748FDF714FF4FF48060ADF820006B
:102B700018208DF8230003208DF8220008A9714841
:102B8000FDF79AFB4FF40060ADF8200004208DF8AB
:102B9000230008A96B48FDF78FFB27208DF80C0058
:102BA00000208DF80D0003208DF80E0001208DF817
:102BB0000F0003A8FDF783FE4FF4E13004900020DE
:102BC000ADF81400ADF81600ADF81800ADF81C0013
:102BD0000C20ADF81A0004A95948FDF722FF002087
:102BE000ADF80400ADF80600ADF80800ADF80A0035
:102BF00001A95348FDF76CFF012240F225515048CE
:102C0000FDF789FF01214E48FDF779FF09B000BDAE
:102C100010B540F225514548FEF73CF858B14348FD
:102C2000FDF7D9FFC1B2484802780078401C464BF6
:102C300018704648815440F225513C48FEF750F840
:102C400041480078032802DD01204149087010BD89
:102C500010B540F225513848FEF71CF858B13648F7
:102C6000FDF7B9FFC1B23B4802780078401C394BF0
:102C700018703948815440F225512F48FEF730F83A
:102C800034480078032802DD01203449087010BD63
:102C900010B540F225512A48FDF7FCFF58B12848ED
:102CA000FDF799FFC1B2284802780078401C264BF6
:102CB00018702648815440F225512148FEF710F83B
:102CC00021480078032802DD01202549087010BD45
:102CD0000A78828000BF028812F0400FFBD0704754
:102CE00010B504460BE000BF40211048FDF7C6FFB9
:102CF0000028F9D021780D48FDF769FF641C207881
:102D00000028F0D110BD10B504460BE000BF4021F3
:102D10000948FDF7B3FF0028F9D021780648FDF7F0
:102D200056FF641C20780028F0D110BD0038014007
:102D300000080140040002000044004008000400B4
:102D400000480040000C0140EC020020BB010020C4
:102D5000B8010020ED0200201F020020B901002070
:102D6000BA0100200246002005E011F8013B02F8FC
:102D7000013B431CD8B20B78002BF6D1137070477F
:102D80002DE9F04105460E461446002714B90020EF
:102D9000BDE8F0811DB9042020700020F8E71EB9BD
:102DA0000C2020700020F3E7FD480078002803DDA8
:102DB000112020700020EBE72878012808D0022895
:102DC00007D0032802D0042804D100E000BF00BFD0
:102DD00000BF03E0012020700020D9E700BF01F010
:102DE000A7F9074605F10F013046FFF7BBFF804604
:102DF000384601F0A1F9002020704046C8E701469E
:102E0000002002E0491C421CD0B20A78002AF9D105
:102E100070472DE9F04105460E4614464FF0000874
:102E20000CB9BDE8F08115B904202070F9E716B996
:102E30000C202070F5E7DA480078002802DD122027
:102E40002070EEE72878012808D0022807D0032850
:102E500002D0042804D100E000BF00BF00BF02E0A0
:102E600001202070DDE700BF01F062F980463046A6
:102E7000FFF7C5FF07460F2F05DD404601F05CF95F
:102E80000B202070CDE7314605F10F00FFF76AFFF8
:102E9000404601F051F90020207000BFC1E77CB529
:102EA000002514E06946284600F067FF064666B92B
:102EB000BC4850F8254044B1012C06D0D4E90201A9
:102EC00000EB8100A0630198E063681CC5B21F2D70
:102ED000E8DD7CBD002402E0C82001F02DF8B248F6
:102EE00000780028F8D0B14800686421B0FBF1F008
:102EF000AE4908600846006828B90020AC4908704F
:102F0000FF2000F085FF00BF01F012F90446A94838
:102F10000068A94908600020A6490860204601F021
:102F20000BF9A5480068A1490968B0FBF1F0C0F1B0
:102F300064009F49087001F052F9FFF7B0FF642068
:102F400000F0FAFFE0E700B587B0032000218022FF
:102F50009A4BCDE90132CDE903104FF6FE701E23E6
:102F6000974A0090AFF2930000F0DAFC06AA95A110
:102F70001E2000F05EFE07B000BD002400BF01F07F
:102F8000D7F804468B480068401C8A4908602046F0
:102F900001F0D2F801F022F9F1E700B587B0032083
:102FA000002180228B4BCDE90132CDE903104FF691
:102FB000FF701F23884A0090AFF2410000F0B0FC80
:102FC00006AA86A11F2000F034FE07B000BD04E071
:102FD000002200F8012B4A1E91B20029F8DC70474C
:102FE00030B54FF4A0718148FFF7F1FF7F4B03F13B
:102FF000200500240AE0002018705D603F20D8738F
:103000000021197420332035601C84B2092CF2DBB6
:103010000020187058603F20D8730021197473483D
:103020007349086030BD30B54FF4B4617148FFF7A3
:10303000CEFF80215B48FFF7CAFF6E4B03F15005BE
:1030400000240AE05D613F2083F840000021412018
:10305000C15450335035601CC4B2112CF2D300203F
:1030600058613F2083F8400000214120C1540020D6
:10307000614908605F486149086030BD0022604BCB
:103080001A706049002004E0002201F8012B421C64
:10309000D0B20428F8DB00225B4B1A705B4B1A702D
:1030A0005B4B1A605B4B1A60704700205A490860FE
:1030B0003B490870594908705949087059490870C6
:1030C000594908603B4908603B4908603749086036
:1030D00035490870704710B501F07CF8FFF7E5FF3F
:1030E000FFF7CCFFFFF79FFFFFF77AFFFFF755FFD2
:1030F000FFF729FF01F06FF810BD4A48007801285A
:1031000008D127480078FF2804D225480078401CC1
:103110002349087070474549394A1278885C394913
:10312000095C424A515C01EBC001384A117070479A
:1031300010B500243B480078012830D100F0F8FF9A
:10314000044617480078002804DD15480078401E22
:103150001349087012480078F0B930480078D8B99F
:10316000FFF7D9FF2948007827490978884213D00A
:103170000C482649097850F821002549086008467E
:103180000068C06A401C0968C86227480068401C83
:103190002549086000F0E8FF204600F0CDFF10BD93
:1031A00005030020F00F002004030020FC02002093
:1031B000F80200201003002000030020F00B002084
:1031C000EC0D002075432F4F532D49492053746156
:1031D00074000000F00D0020EC0F002075432F4F0D
:1031E000532D49492049646C65000000B00A002055
:1031F000F40200207010002020030020180300209B
:10320000090300200A030020070300200803002010
:103210001C030020140300202803002006030020C4
:103220000F0300200E030020F00200200C4A0008CB
:1032300010B50024FE480078012811D100F078FF75
:103240000446FC48007840B9FB480078FF2804D2C7
:10325000F9480078401CF8490870204600F06CFFDF
:1032600010BD10B5002400F063FF0446F14800785B
:10327000F0B9F1480078D8B9FFF74DFFEF48007872
:10328000EF490978884213D0EE48EC49097850F8A4
:103290002100ED49086008460068C06A401C0968C2
:1032A000C862EA480068401CE849086000F057FF1F
:1032B000204600F041FF10BD10B50024DC48007826
:1032C000012822D100F034FF0446DB4800780028B2
:1032D00018DDD9480078401ED749087008460078A4
:1032E00060B9D448007828B9204600F025FFFFF7E0
:1032F000B8FF0AE0204600F01FFF06E0204600F07D
:103300001BFF02E0204600F017FF10BD10B5C848B3
:10331000007890B9FFF7FFFEC8480078C8490870E8
:10332000C848C649097850F82100C74908600846CE
:103330000068C749086000F002FF10BD10B5002406
:10334000022000F0F9FD00F0F3FE04460020C14920
:103350000860204600F0F0FE642000F0EDFD00F073
:10336000E7FE0446BB480068BB4908600120BB4932
:103370000870204600F0E0FE10BD70B5002600F099
:103380007EFF00F0D5FE0646B5480068401CB449F3
:103390000860304600F0D0FEA5480078012858D1DA
:1033A000B048007820B1012804D0022809D103E0F8
:1033B00001250BE0002509E001250120A94908703D
:1033C00004E001250020A749087000BF00BF05B92F
:1033D00070BDA548046838E000F0AAFE0646208CBF
:1033E00078B3208C401E0004000C208429D194F86E
:1033F000220010F0370F09D014F8220F20F0370008
:10340000207001206070A4F1220402E0002084F802
:10341000230094F8220010F0080F12D104F12604C2
:10342000A0789249097840EA010090490870207814
:103430008F49085C617840EA010014F826198C4A2B
:1034400050546469304600F077FE94F824001F2839
:10345000C2D100BFBCE74FF48F707047704710B502
:1034600090F8262001F10B039B5C90F82740A343C2
:1034700001F10B04A35423469B5C23B98B7A90F88B
:103480002840A3438B7210BD2DE9F04F05460F462F
:1034900090469946A87A77490E5C05F10B00805D4D
:1034A00011F800B00BEBC60000F0FF0A654850F8B9
:1034B0002A40002024F8200F00BFA07820EA08004E
:1034C000A07084F80390A078A4F1200410F0080FF5
:1034D0000DD194F8280065490978084363490870BC
:1034E0006348805D94F82710084361498855294650
:1034F0002046FFF7B4FF5046BDE8F08F10B5544AA0
:103500001268D061524A126892F8263000F10B021C
:10351000D25C4F4B1B6893F827301A434C4B1B6807
:1035200093F8264000F10B031A55827A484B1B682A
:1035300093F828301A438272454A126892F826108E
:103540004B4A525C424B1B6893F827309A43484BD6
:103550005A541A46525C42B93D4A126892F82830D1
:10356000424A12789A43414B1A7010BD002383726D
:1035700000F10B01002204E0002301F8013B531C81
:10358000DAB2042AF8DB704705E011F8013B00F8D5
:10359000013B531E9AB2002AF7DC70472DE9F84F21
:1035A00005460E4617469846DDE90BABDDF8289038
:1035B0000020009000F0BCFD00902F480468002C13
:1035C0007ED054F8140F2C490860009800F0B4FD28
:1035D00044F8146C25740020A073E073A08144F8B3
:1035E00010AC44F8089C44F80C7C24F804BC24F883
:1035F000028C6075E810A07405F007006074A17C6F
:10360000012088402075617C01208840E074002002
:10361000A060A0612062E0616062A0623F2084F847
:103620002C00A4F114044FF000014FF0410025E0FC
:103630000E030020050300200603002008030020DD
:1036400007030020F00F00201C030020F0020020E0
:103650001403002010030020FC02002004030020BB
:103660002803002024030020200300200903002059
:103670000A0300200C4A00081803002001552046C8
:1036800000F0FCFD204600F0A7FD00F051FD009089
:103690001A4840F825401A48006860610020A0617F
:1036A0001748006810B11648006884611448046027
:1036B00004F12604A0781349097840EA010000E0EB
:1036C00017E01049087020780F49085C617840EADB
:1036D000010014F826190C4A50540C48007800F1E7
:1036E00001000A490870009800F026FD0020BDE89E
:1036F000F88F009800F020FD4220F8E7F00F00203E
:1037000020030020090300200A0300200F030020EB
:103710002DE9FF5F81460F4600200090B9F11F0F91
:1037200006DBB9F1FF0F03D02A2004B0BDE8F09FFB
:103730001F2F01DB2A20F8E700F0FAFC0090F9487F
:1037400050F8270020B1009800F0F6FC2820ECE7A4
:10375000B9F1FF0F03D1F448006890F82490F148C4
:1037600050F8294024B9009800F0E6FC2920DCE755
:10377000012C04D1009800F0DFFC4320D5E74FEA8C
:10378000E70807F007000390012000FA08F000F0B6
:10379000FF0A01210398814001F0FF0B0020E1495D
:1037A00041F82900084640F8274014F8266FA07811
:1037B00002906078A4F126040190DC48815D0198B4
:1037C00001421CD0D948805D01998843D74988556A
:1037D0000846805D28B9D648007802998843D449C4
:1037E0000870D348007840EA0A00D1490870CF48F1
:1037F00010F8080040EA0B00CC4901F80800E56920
:10380000E5B105F10B00805D0199884305F10B01DD
:1038100088550846805D18B9A87A02998843A8722D
:10382000A87A40EA0A00A87205F10B0010F8080017
:1038300040EA0B0005F10B0101F8080084F8247040
:1038400084F82680039884F8250084F828A084F85A
:1038500027B0009800F070FCB6480078012801D12C
:10386000FFF7FFFC002060E72DE9FE4F06460F46FC
:1038700090461C464FF000091F2C02DD2A20BDE8AF
:10388000FE8F00F055FC8146AB480078002804DD2F
:10389000484600F051FC3C20F1E7A24850F82400D3
:1038A00060BB01209F4941F82400484600F044FCD9
:1038B000002342463946304600F092FC8246002002
:1038C0000090019003460246514602902046FFF7C1
:1038D00065FE054635B99748007801280CD1FFF7F9
:1038E000C0FC09E000F024FC814600208D4941F82D
:1038F0002400484600F020FC2846C0E7484600F077
:103900001BFC2820BBE712F0010F08D012F0020FB9
:1039100005D002E0491E002308C00029FAD17047F3
:103920002DE9F04F85B081468A4693461C46DDE975
:103930000F78129D002003901F2C03DD2A2005B074
:10394000BDE8F08F00F0F4FB03907B48007800287E
:1039500004DD039800F0F0FB3C20F0E7714850F8DC
:10396000240088BB01206F4941F82400039800F02F
:10397000E3FB2A4641463846FFF7C5FF2B465A4629
:103980005146484600F02CFC04901198CDE9008087
:1039900002953A4620460E9B0499FFF7FFFD064626
:1039A00036B96448007801280CD1FFF75AFC09E0C9
:1039B00000F0BEFB039000205A4941F82400039810
:1039C00000F0BAFB3046BAE7FFE7039800F0B4FB1B
:1039D0002820B4E770B5054600265748007800282F
:1039E00001DD402070BD1F2D01D13E20FAE71F2DC3
:1039F00003DBFF2D01D02A20F4E700F099FB0646F7
:103A0000FF2D03D14848006890F82450454850F8ED
:103A1000254024B9304600F08FFB4320E2E7012C1B
:103A200004D1304600F088FB3D20DBE714F8260F78
:103A30003E49085C6178884321783C4A505414F828
:103A400026091146085C30B994F8281038480078E7
:103A5000884337490870E06918B12046E169FFF7EB
:103A6000FEFC0020208484F8220084F823003348E0
:103A70000078FF2804D231480078401C2F49087094
:103A8000304600F059FBFFF7E9FC00F051FB064619
:103A90002A480078002804DD28480078401E27497D
:103AA0000870204600F099FB25480078401E244904
:103AB000087000201B4941F82500A06930B900209A
:103AC000616988611F496069086005E0D4E9050102
:103AD0004861D4E9051088611B48006860611A4894
:103AE00004603F2084F84000002141200155304609
:103AF00000F022FB0F480078012801D1FFF7B1FB4D
:103B000000206FE72DE9F041044600271F2C02D169
:103B10003E20BDE8F0811F2C18DBFF2C16D02A2098
:103B2000F7E70000F00F0020140300200A03002034
:103B3000090300200E0300200503002006030020D7
:103B40000F0300202003002018030020FF2C0BD1BE
:103B500000F0EEFA0746F248006890F8296038460F
:103B600000F0EAFA3046D4E700F0E2FA0746ED4802
:103B700050F8245025B9384600F0DEFA4320C8E753
:103B8000012D04D1384600F0D7FA3D20C1E73F208F
:103B900085F82900384600F0CFFA0020B9E72DE972
:103BA000F04705460F4614464FF0000814B90020B0
:103BB000BDE8F0871F2D05DDFF2D03D02A202070E2
:103BC0000020F5E71FB90C2020700020F0E7D64850
:103BD0000078002803DD112020700020E8E700F0C5
:103BE000A7FA8046FF2D03D1CD48006890F82450F5
:103BF000CC4850F8256036B9404600F09DFA432085
:103C000020700020D4E7012E06D1404600F094FA3F
:103C1000432020700020CBE706F140013846FFF733
:103C2000A1F88146404600F087FA002020704846FF
:103C3000BEE72DE9F04705460F4614464FF0000950
:103C40000CB9BDE8F0871F2D04DDFF2D02D02A201E
:103C50002070F6E717B90C202070F2E7B248007820
:103C6000002802DD12202070EBE700F061FA8146A7
:103C7000FF2D03D1AA48006890F82450A94850F8B5
:103C800025602EB9484600F057FA43202070D8E747
:103C9000012E05D1484600F04FFA43202070D0E7AE
:103CA0003846FFF7ACF88046B8F10F0F05DD4846FF
:103CB00000F042FA41202070C3E7394606F1400087
:103CC000FFF750F8484600F037FA0020207000BF98
:103CD000B7E770B5054600261F2D01DB2A2070BD11
:103CE00000F026FA06468F4850F8254024B93046A1
:103CF00000F022FA4620F2E7012C04D1304600F011
:103D00001BFA4320EBE794F8220010F0080F2FD0A5
:103D100014F8220F20F00800207014F8220910BBBC
:103D2000208CE0B904F12604A0788049097840EAA3
:103D300001007E49087020787D49085C617840EA7E
:103D4000010014F826197A4A5054304600F0F4F96C
:103D500078480078012809D1FFF783FA06E0304659
:103D600000F0EAF902E0304600F0E6F90020B6E79C
:103D7000304600F0E1F94420B1E72DE9F04706466E
:103D80000C464FF0000A1F2E04DDFF2E02D02A2021
:103D9000BDE8F0870CB90920FAE7002020606060D8
:103DA00000F0C6F98246FF2E03D15D48006890F806
:103DB00024605C4850F8265025B9504600F0BCF904
:103DC0004320E5E7012D04D1504600F0B5F943202A
:103DD000DEE7287C10F0010F04D1504600F0ACF96A
:103DE0004520D5E70027D5F80C90D5F80880504637
:103DF00000F0A2F900E07F1C58F8041B0029FAD05B
:103E0000B8002060A9EB0700800060600020BFE7D9
:103E10002DE9F04105464FF000081F2D02D1472043
:103E2000BDE8F0811F2D03DBFF2D01D02A20F7E72D
:103E300000F07EF98046FF2D05D13948006890F8E2
:103E40002450012608E03648006890F82400A84273
:103E500001D1012600E00026324850F8254024B95F
:103E6000404600F069F94820DAE7012C04D14046C9
:103E700000F062F94320D3E794F826702C48C05D27
:103E800094F8271088432A49C8550846C05D30B9C0
:103E900094F828102548007888432449087094F83D
:103EA000220040F0080084F82200404600F044F967
:103EB000012E01D1FFF7D5F90020B1E72DE9F0413E
:103EC00004460E4600271F2C04DDFF2C02D02A20BA
:103ED000BDE8F0810EB90920FAE700F029F907469C
:103EE000FF2C03D10E48006890F824400D4850F88C
:103EF000245025B9384600F01FF92920E8E7012DA4
:103F000004D1384600F018F94320E1E75022294651
:103F10003046FFF739FB384600F00EF90020D7E7AE
:103F200014030020F00F00200503002009030020E7
:103F30000A0300200E03002070B5054600267648CF
:103F40000078002800DD70BD002D23DD00F0F0F8C2
:103F500006467248006890F826407148005D6F4937
:103F6000096891F8271088436D4908550846005D97
:103F700040B96A48006890F828106A480078884379
:103F800068490870654800680584304600F0D4F838
:103F9000FFF767F900BFD6E72DE9F04780460D46E9
:103FA00016461C465C480078002802DD5520BDE816
:103FB000F087B8F1000F04D11DB916B90CB954201F
:103FC000F5E73B2D01DD5120F1E73B2E01DD5220CD
:103FD000EDE7B4F57A7F01DB5320E8E74FF47A7020
:103FE00060434FF47A71B0FBF1F14FF4616008FB6C
:103FF00000F0C5EB051200EB8200304400EB4002FC
:10400000C2EBC01001EBC0074FEA1749BFB23846F8
:10401000FFF792FF0BE04FF40040FFF78DFF4FF4E6
:104020000040FFF789FFA9F101001FFA80F9B9F1FB
:10403000000FF0DC0020BAE770B5054600261F2D02
:1040400001DB2A2070BD00F073F80646364850F8B0
:10405000254024B9304600F06FF84320F2E7012CE8
:1040600004D1304600F068F84320EBE7208C20B9FB
:10407000304600F061F85020E4E70020208494F8F6
:10408000220010F0370F09D014F8220F20F037006B
:10409000207001206070A4F1220402E0002084F866
:1040A000230094F8220010F0080F18D104F1260420
:1040B000A0781C49097840EA01001A490870207864
:1040C0001749085C617840EA010014F82619144A7F
:1040D0005054304600F030F8FFF7C3F802E03046A5
:1040E00000F02AF80020ADE770B5002500F020F8B8
:1040F00005460E480468284600F01EF8204670BDAC
:1041000070B50446002500F013F805460748046022
:10411000284600F011F870BD0503002014030020AC
:104120000A03002009030020F00F002028030020CC
:10413000EFF3108072B6704780F3108870471D4807
:104140004FF0FF010170002080F309881A48012117
:1041500001701A484FF08051016062B6FEE71748BF
:104160004FF080510160704714484FF0805101605A
:10417000704772B6EFF3098028B1203880E8F00F5D
:104180000F490968086000B50E4880475DF804EBE8
:104190000D480E490A78027009480D490A68026004
:1041A000106890E8F00F203080F309884EF0040E7C
:1041B00062B6704722ED00E00E03002004ED00E03F
:1041C000140300207B42000807030020080300209E
:1041D0001C03002070477047704770477047704756
:1041E00070B5044610464FF080750560051F2846DF
:1041F0002C606FF00106051F28462E604FF0123626
:10420000051F28462E604FF00336051F28462E60F6
:104210004FF00236051F28462E607610051F2846EF
:104220002E60051F284629604FF01136051F2846CD
:104230002E604FF01036051F28462E604FF00936CD
:10424000051F28462E604FF00836051F28462E60B1
:104250004FF00736051F28462E604FF00636051F23
:1042600028462E604FF00536051F28462E604FF079
:104270000436051F28462E6070BD70477047704792
:1042800008B501210420FCF7ADFA6448FBF7ACFF48
:1042900040F28310ADF8000003208DF802001020DA
:1042A0008DF8030069465D48FCF706F808BD70B557
:1042B00005460C46012D4CD101025848FCF7A9F8DF
:1042C00080215648FCF7A5F802215448FCF7A1F8D4
:1042D00001215248FCF79BF82046FDF7BBFA290262
:1042E0004E48FCF796F880214C48FCF792F80221E2
:1042F0004A48FCF78CF801214848FCF78AF8204628
:10430000FDF7A8FA29024548FCF783F880214348C5
:10431000FCF77DF802214148FCF77BF801213F487A
:10432000FCF777F82046FDF795FA29023B48FCF7A1
:104330006EF880213948FCF76CF802213748FCF709
:1043400068F801213548FCF764F82046FDF782FA49
:104350004FE04FF480713148FCF759F880212F4825
:10436000FCF757F802212D48FCF753F801212B48A0
:10437000FCF74FF82046FDF76DFA4FF4807127489F
:10438000FCF747F880212548FCF741F80221234833
:10439000FCF73FF801212148FCF73BF82046FDF7E8
:1043A00059FA4FF480711D48FCF733F880211B48FF
:1043B000FCF72FF802211948FCF729F801211748CA
:1043C000FCF727F82046FDF745FA4FF480711348B3
:1043D000FCF71FF880211148FCF71BF802210F4859
:1043E000FCF717F801210D48FCF711F82046FDF7FE
:1043F00031FA70BD10B54FF480710848FCF709F828
:1044000080210648FCF705F802210448FCF701F872
:1044100001210248FBF7FDFF10BD0000000801402C
:10442000D2B201E000F8012B491EFBD270470022F6
:10443000F6E710B513460A4604461946FFF7F0FFA3
:10444000204610BD30B505462A460B4612F8010B32
:1044500013F8014B08B1A042F8D01CB1002802D0DB
:104460006D1CF1E7284630BD10B5044604E00B781A
:1044700000F8013B03B1491C521EF8D2204610BD82
:104480002DE9FE4F81EA030404F0004421F00041CD
:1044900000944FF0000B23F0004350EA010402D0D7
:1044A00052EA030404D10020014603B0BDE8F08FB6
:1044B000C3F30A54C1F30A552C44A4F2F334019413
:1044C000A0FB0254C1F3130141F48011C3F31303A1
:1044D00043F4801301FB024400FB034E840A970A55
:1044E00044EA815447EA8357A4FB076802958D0A82
:1044F00005FB07854FEA932C04FB0C542705029D0E
:104500004FEA065847EA1637B5EB08056EEB070C7D
:10451000870E920E47EA811742EA8312A7FB020137
:10452000B6EB0B0164EB00042B0D43EA0C335E1871
:1045300044EB1C50DA465146E7FB0201C5F3130475
:104540004FEA0B3343EA14534FEA0432019C43EA27
:104550000603A4F10C040294009CCDE900B400F021
:104560009CF8A2E70EB5C10F80EAE0700844CA07C4
:10457000002140F233438DE80E000A460B4600F05E
:104580008CF803B000BD01F0004330B421F00041CD
:1045900050EA010206D00A0DA2F56072C1F31301C0
:1045A000002A02DC30BC00207047440F44EAC104FA
:1045B000C100E01830BC00EBC25000F02BB8000086
:1045C000002801DBC0F10040002901DBC1F10041FE
:1045D00081427047002801DBC0F10040002901DB67
:1045E000C1F100418842704730B50B4601460020BA
:1045F0002022012409E021FA02F59D4205D303FAA5
:1046000002F5491B04FA02F52844151EA2F1010225
:10461000F1DC30BD0029A8BF7047401C490008BF2D
:1046200020F00100704710B4B0FA80FC00FA0CF0E2
:1046300050EA010404BF10BC704749B1CCF120041A
:1046400021FA04F411FA0CF118BF012121430843A7
:10465000A3EB0C01CB1D0106000A002BBEBF0020FE
:1046600010BC704700EBC35010440029A4BF10BC1D
:104670007047401C490008BF20F0010010BC704783
:1046800010B5002B08DA401C41F1000192185B4183
:104690001A4301D120F0010010BD2DE9F04D9246E2
:1046A0009B4611B1B1FA81F202E0B0FA80F22032F9
:1046B000904600F057F804460F4640EA0A0041EAE7
:1046C0000B0153465A46084303D120463946BDE8FC
:1046D000F08D114653EA010015D0C8F14002504652
:1046E00000F04FF805460E4650465946424600F047
:1046F00039F8084301D0012000E00020054346EAD4
:10470000E0762C4337430A984FEA4453A0EB080065
:104710004FEAD4240A304FF0000244EA47544FEAEB
:10472000D72502D500200146D1E7010510196941BE
:10473000DDE9084500196941BDE8F04DA0E700003A
:10474000064C074D06E0E06840F0010394E80700DE
:1047500098471034AC42F6D3FBF7EEFC0C4B000844
:104760002C4B0008202A04DB203A00FA02F100203A
:1047700070479140C2F1200320FA03F3194390409F
:104780007047202A04DB203A21FA02F0002170470A
:1047900021FA02F3D040C2F12002914008431946A9
:1047A000704770B501EB020410F8015B15F00703C8
:1047B00001D110F8013B2A1106D110F8012B03E0BA
:1047C00010F8016B01F8016B5B1EF9D12B0705D4C2
:1047D0000023521E0FD401F8013BFAE710F8013B09
:1047E00002F10202A1EB030303E013F8015B01F8FD
:1047F000015B521EF9D5A142D6D3002070BD000046
:104800000FB4054B10B503A9044A029800F018F83C
:1048100010BC5DF814FB0000F1290008E80200203C
:1048200002E008C8121F08C1002AFAD17047704779
:10483000002001E001C1121F002AFBD170470000D7
:104840002DE9FF4F8BB09A460F4605460026C9E07A
:10485000252837D100246D1C6649A04601222B78FB
:10486000203B02FA03F0084202D004436D1CF6E735
:1048700028782E2817D115F8010F44F004042A28AF
:104880000ED06FF02F022878A0F1300109290AD844
:1048900008EB880102EB410100EB01086D1CF2E717
:1048A00057F8048B6D1C287869283FD006DC002857
:1048B00071D063280CD0642804D137E0732811D05C
:1048C00075284ED052460D99904706F1010688E0B2
:1048D00017F8040B8DF8000000208DF80100E94660
:1048E000012003E057F8049B4FF0FF3061074FF0C1
:1048F000000401D40AE0641C44450DDA8442FADB6A
:1049000019F804100029F6D106E0641C8442FCDB8F
:1049100019F804100029F8D1264404E019F8010B15
:1049200052460D999047641EF8D25AE001CF4FF0DD
:104930000A0B002804DAC0F100004FF02D0102E05C
:10494000210504D52B218DF82410012103E0E10776
:1049500005D02021F7E70DF1200908910CE0002196
:10496000F9E701CF4FF00A0BF9E75946FFF73CFE94
:1049700001F1300209F8012D0028F6D1ADEB090054
:1049800000F1200B600701D44FF00108D84503DD8A
:10499000A8EB0B0001E029E000208046002406E09F
:1049A00009A85246005D0D999047761C641C089832
:1049B0008442F5DB04E0302052460D999047761C86
:1049C000B8F10001A8F10108F5DC05E019F8010BC8
:1049D00052460D999047761CBBF10001ABF1010BDB
:1049E000F4DC6D1C287800287FF432AF0FB030461D
:1049F000BDE8F08F0928010000A24A0400A24A0481
:104A000000A24A040051250200A24A04000001004D
:104A10000200010003000100020001000400010087
:104A20000200010003000100020001000500010076
:104A30000200010003000100020001000400010067
:104A40000200010003000100020001000600010055
:104A50000200010003000100020001000400010047
:104A60000200010003000100020001000500010036
:104A70000200010003000100020001000400010027
:104A80000200010003000100020001000700010014
:104A90000200010003000100020001000400010007
:104AA00002000100030001000200010005000100F6
:104AB00002000100030001000200010004000100E7
:104AC00002000100030001000200010006000100D5
:104AD00002000100030001000200010004000100C7
:104AE00002000100030001000200010005000100B6
:104AF00002000100030001000200010004000100A7
:104B00000200010003000100020001002C4B00081C
:104B1000000000202C030000A2470008F44B00080E
:104B20002C030020E414000030480008412D01024D
:104B3000030404C009060708090204060858084CC3
:104B400044313538383001031833361814333135D1
:104B5000352E31333533302C4E2C31313835372E1C
:104B6000066530312C45320116B5620608061C1068
:104B700027010E03104DDD191E1301086AF02F0ADC
:104B800013241E4A021E0B1302321E4A031E0B136D
:104B900003391E2983191E0B13012B1E4A051EE320
:104BA0000547A3A551130103120204140265CB1A91
:104BB0003A951439233A1C02023A0613010A3A3193
:104BC000073B0130073B0233072B033222120A490D
:104BD000072A01152C020A0223062F020A03312399
:104BE000000B5A7869616F626177616E6709C6640C
:044BF000014500007B
:0400000508000147A7
:00000001FF
