:020000040800F2
:1000000000040020470100085501000857010008BE
:10001000590100085B0100085D01000800000000B4
:100020000000000000000000000000005F01000868
:1000300061010008000000000B4A0008650100088B
:1000400067010008670100086701000867010008F0
:1000500067010008670100086701000867010008E0
:1000600067010008670100086701000867010008D0
:1000700067010008670100086701000867010008C0
:1000800067010008670100086701000867010008B0
:1000900067010008670100086701000867010008A0
:1000A0006701000867010008670100086701000890
:1000B0006701000867010008670100086701000880
:1000C0006701000867010008670100086701000870
:1000D00067010008A9340008E93400082935000840
:1000E0006701000867010008670100086701000850
:1000F0006701000867010008670100086701000840
:10010000670100086701000867010008670100082F
:10011000670100086701000867010008670100081F
:10012000670100086701000867010008670100080F
:10013000DFF80CD005F00EF80048004781010008F8
:1001400060230020704708488047084981F30888E9
:1001500007480047FEE7FEE7FEE7FEE7FEE7FEE7AB
:10016000FEE7FEE7FEE7FEE745010008602300200A
:100170003101000810B54FF4A06000F091FB10BDF4
:1001800010B5012001F08AF901F082F901F046FB77
:1001900001F078FAFFF7EEFF03F081F803F0CCF8F6
:1001A00003F025F901F050FC01F001FD412001F0C0
:1001B0003BFD03F0DCFB0423044A0021044803F068
:1001C0009FFF03F0EFFC002010BD00008C0F00200B
:1001D0007D30000810B50446C549601A8C422FD006
:1001E00009DCC448201810D0B0F5806F16D0B0F5E7
:1001F000006F4AD11BE0B0F5806F2AD0B0F5006FD8
:1002000030D0B0F5406F40D135E00121042000F03E
:10021000F9FA0021042000F0F5FA37E00121082066
:1002200000F0F0FA0021082000F0ECFA2EE00121A5
:10023000102000F0E7FA0021102000F0E3FA25E09A
:100240000121202000F0DEFA0021202000F0DAFA5F
:100250001CE00121402000F0D5FA0021402000F0F0
:10026000D1FA13E00121802000F0CCFA0021802097
:1002700000F0C8FA0AE00121080200F0C3FA0021E8
:100280004FF4807000F0BEFA00E000BF00BF10BD68
:1002900010B50121084600F0B5FA0021012000F058
:1002A000B1FA10BD2DE9F0410246002500260020DC
:1002B00000230024002791F803C00CF00F0591F8EB
:1002C00003C01CF0100F03D091F802C04CEA0505E2
:1002D00091F800C0BCF1000F31D0146800202BE071
:1002E0004FF0010C0CFA00F3B1F800C00CEA030661
:1002F0009E4220D183004FF00F0C0CFA03F7BC4351
:1003000005FA03FC4CEA040491F803C0BCF1280F81
:1003100006D14FF0010C0CFA00FCC2F814C00AE040
:1003200091F803C0BCF1480F05D14FF0010C0CFA55
:1003300000FCC2F810C0401C0828D1D31460B1F8EA
:1003400000C0BCF1FF0F34DD546800202EE000F146
:10035000080C4FF0010808FA0CF3B1F800C00CEAE1
:1003600003069E4221D183004FF00F0C0CFA03F7D5
:10037000BC4305FA03FC4CEA040491F803C0BCF149
:10038000280F05D100F1080C08FA0CF8C2F8148007
:1003900091F803C0BCF1480F07D100F1080C4FF0F1
:1003A000010808FA0CF8C2F81080401C0828CED3C7
:1003B0005460BDE8F0814FF6FF7101800221817029
:1003C0000421C17070470246002093680B4201D09F
:1003D000012000E0002070470146886880B2704725
:1003E00002460020D3680B4201D0012000E000202B
:1003F00070470146C86880B270470161704741612B
:1004000070470AB1016100E041617047C160704707
:100410004FF480320A43826181618261826982691C
:10042000704702460020344B18684FF6807318401E
:1004300040EA02100843304B186070472F49C861EA
:100440007047F0B50A4600230024002100252A4EFB
:100450007168C0F3034583B200F44016B6F5401F3F
:1004600008D121F07061244E766826F07066224F24
:100470007E6012E000F48016B6F5801F06D10326D8
:1004800006FA05F4A14341F0706106E0460D36011D
:1004900003FA06F6B14341F0706122B1460D360110
:1004A00003FA06F63143144E7160F0BD30B50022F8
:1004B0008B071C0F0F2303FA04F20F4B08338C1029
:1004C00053F8243093430C4C08348D1044F82530F5
:1004D00023468C1053F824308C07240F00FA04F4C0
:1004E0002343054C08348D1044F8253030BD0000FE
:1004F0000014014000F8FEBF00000140000020424F
:10050000DC48006840F00100DA49086008464068AD
:10051000D9490840D749486008460068D74908408B
:10052000D44908600846006820F480200860084626
:10053000406820F4FE004860002088607047CD4984
:10054000096821F48031CB4A11601146096821F411
:1005500080211160B0F5803F03D0B0F5802F0ED11F
:1005600006E0C449096841F48031C24A116007E0DD
:10057000C049096841F4A021BE4A116000E000BFF3
:1005800000BF704710B501460022002300204A1129
:10059000012A02D1B74C236806E0022A02D1B54CE9
:1005A000236A01E0B34C636A01F01F020124944006
:1005B0001C4201D0012000E0002010BD38B5002011
:1005C00000900024002500BF3120FFF7DBFF054627
:1005D0000098401C00901DB90098B0F5A06FF3D1B1
:1005E0003120FFF7CFFF08B1012400E000242046AE
:1005F00038BD014600209F4A106820F0F80040EA0C
:10060000C100106070479E49086070470246002094
:10061000984B586820F47C1042EA01031843954B2C
:100620005860704796490866704701460020914A15
:10063000506820F003000843506070478D484068C0
:1006400000F00C007047014600208A4A506820F0F4
:10065000F00008435060704701460020854A50680A
:1006600020F4E06008435060704701460020814A52
:10067000506820F4605040EAC1005060704729B1D2
:100680007C4A527A02437B4B5A7204E0794A527A8E
:100690008243784B5A7270477A4908607047014626
:1006A0000020744A506820F440400843506070476E
:1006B0000021754A11706F4A82F82010012802D07B
:1006C000042808D103E001216F4A117004E00521DC
:1006D0006D4A117000E000BF00BF70476B490860B1
:1006E00070476449096A0143624A11627047674969
:1006F00044390860704730B50021002200240023EF
:100700005C4D6D6805F00C0121B1042905D0082964
:1007100023D105E05E4D056022E05D4D05601FE0E0
:10072000544D6D6805F47012022505EB9242514D4F
:100730006D6805F480341CB9564D554305600BE0D7
:100740004C4D6D6815F4003F03D0524D5543056084
:1007500002E04F4D5543056002E04D4D056000BF7E
:1007600000BF444D6D6805F0F00109094A4D6B5C0E
:100770000568DD4045603F4D6D6805F4E061090A9C
:10078000454D6B5C4568DD4085603A4D6D6805F40C
:100790006051C90A404D6B5C4568DD40C560354D10
:1007A0006D6805F44041890B3C4D6B5CC568B5FB39
:1007B000F3F5056130BD29B12E4A526902432D4B34
:1007C0005A6104E02B4A526982432A4B5A617047AE
:1007D00029B1284A92690243264B9A6104E0254ACE
:1007E00092698243234B9A61704729B1214AD269A9
:1007F0000243204BDA6104E01E4AD26982431D4B5A
:10080000DA61704729B11B4AD2680243194BDA609A
:1008100004E0184AD2688243164BDA60704729B167
:10082000144A12690243134B1A6104E0114A126917
:100830008243104B1A617047144940390860704771
:100840000F49C86470470B49C87170470948406A2E
:1008500040F0807007494862704701460020054A11
:1008600092680A4201D0012000E00020704701494F
:1008700088727047001002400000FFF8FFFFF6FE8C
:1008800000004242D800424220100240800442420E
:1008900000127A0000093D00000000201000002036
:1008A00031490143314A1160704770B5002100237E
:1008B0000F22C4780CB32D4C246804F4E064C4F512
:1008C000E064210AC1F10403CA40447804FA03F148
:1008D0008478144021430901254C0678A1550478F9
:1008E00004F01F050124AC4005786D114FF0E0269F
:1008F00006EB8505C5F8004109E0047804F01F0502
:100900000124AC401B4D0678761145F8264070BD99
:10091000194A0A400243154B1B1F1A60704739B130
:10092000124A121D12680243104B1B1D1A6006E08A
:100930000E4A121D126882430C4B1B1D1A60704731
:10094000042808D14FF0E021096941F004014FF07B
:10095000E022116107E04FF0E021096921F0040174
:100960004FF0E022116170470000FA050CED00E045
:1009700000E400E080E100E080FFFF1F10B50446C6
:10098000D749601A8C422BD006DCD648201813D0E9
:10099000B0F5806F38D119E0B0F5806F2AD0B0F58E
:1009A0006C4F31D101218803FFF72CFF00214FF458
:1009B0008040FFF727FF28E001214804FFF72FFFC1
:1009C00000214FF40030FFF72AFF1EE001218804C8
:1009D000FFF725FF00214FF48020FFF720FF14E0F0
:1009E0000121C804FFF71BFF00214FF40020FFF78F
:1009F00016FF0AE001210805FFF711FF00214FF45F
:100A00008010FFF70CFF00E000BF00BF10BD2DE914
:100A1000F04786B005460E460024A24600BF00BF40
:100A200000272F462C8A4CF6FF700440F0880443C0
:100A30002C82AC894EF6F3100440B088318908430B
:100A4000718908430443AC81AC8A4FF6FF400440EF
:100A5000B0890443AC8201A8FFF74DFEA24887424B
:100A600002D1DDF810A001E0DDF80CA00AEBCA000D
:100A700000EB0A1031688900B0FBF1F86420B8FB84
:100A8000F0F004012009642101FB1089322000EB01
:100A90000910B0FBF1F000F00F0004432C8106B008
:100AA000BDE8F0874FF41651016000218180C180BC
:100AB00001810C21418100218181704710B50246DE
:100AC0000020108A4FF2FF0318400B884C88234304
:100AD0008C882343CC8823431843108210BD002107
:100AE000018041808180C180704721B1828942F4B8
:100AF0000052828104E082894DF6FF731A408281A0
:100B00007047F0B503460024002600250020184653
:100B1000C1F3421401F01F06012707FA06F5012C64
:100B200001D10C3004E0022C01D1103000E014306F
:100B30001AB107682F43076002E00768AF430760F8
:100B4000F0BD1AB1838A0B43838202E0838A8B4310
:100B500083827047028A4FF6F0731A400282028A3B
:100B60000A430282704782894FF2FF731A408281E2
:100B700082890A438281704721B1828942F0020250
:100B8000828104E082894FF6FD731A4082817047AA
:100B9000028A4FF6DF731A400282028A0A430282F7
:100BA000704721B1028A42F48042028204E0028A44
:100BB0004BF6FF731A4002827047C1F3080282802D
:100BC000704701468888C0F308007047818941F06A
:100BD000010181817047028BD2B20283028B42EA0B
:100BE000012202837047028B02F47F420283028B50
:100BF0000A430283704721B1828A42F02002828236
:100C000004E0828A4FF6DF731A408282704721B176
:100C1000828A42F01002828204E0828A4FF6EF73E9
:100C20001A408282704721B1828A42F00802828291
:100C300004E0828A4FF6F7731A4082827047828AF4
:100C40004FF6FB731A408282828A0A43828270477F
:100C500021B1828A42F00202828204E0828A4FF647
:100C6000FD731A40828270470246002013880B42AF
:100C700001D0012000E000207047CA430280704785
:100C800070B502460B460024002100250020C3F366
:100C9000421503F01F01012606FA01F1012D02D1D0
:100CA0009689314006E0022D02D1168A314001E0DA
:100CB000968A31401C12012606FA04F41688344044
:100CC00011B10CB1012000E0002070BD10B5002270
:100CD00000230A1201249440A3B2DC43048010BD17
:100CE000004C004000BCFFBF0038014010B5044676
:100CF000F748201806D0B0F5806F0DD0B0F5C05F72
:100D00001ED113E001214802FFF77CFD00214FF4C2
:100D10000070FFF777FD14E001218802FFF772FDF4
:100D200000214FF48060FFF76DFD0AE00121C80348
:100D3000FFF768FD00214FF40040FFF763FD00E07E
:100D400000BF00BF10BD30B5024600200023506830
:100D5000E04C20400D790C6844EA052420435060A3
:100D60009068DD4C2040D1E902542C434D7944EA8F
:100D7000450420439060D06A20F470000C7C641E0F
:100D80001C43E3B240EA0350D06230BD0021016051
:100D9000017141718160C16001210174704721B10D
:100DA000826842F00102826003E0826822F0010260
:100DB0008260704721B1826842F48072826003E0F1
:100DC000826822F480728260704710B50023CBB233
:100DD0001AB144681C43446002E044689C43446088
:100DE00010BD816841F00801816070470146002014
:100DF0008A6812F0080F01D0012000E0002070473F
:100E0000816841F0040181607047014600208A68D2
:100E100012F0040F01D0012000E00020704721B142
:100E2000826842F4A002826003E0826822F4A00299
:100E300082607047014600208A6812F4800F01D05A
:100E4000012000E00020704710B50A460021002371
:100E5000416821F46041531E41EA4331416010BDB5
:100E600021B1426842F40062426003E0426822F429
:100E7000006242607047F0B504460D460020002134
:100E8000092D11DDE068A5F10A0606EB46070726E5
:100E900006FA07F18843A5F10A0606EB460603FAAF
:100EA00006F10843E0600CE0206905EB45070726E2
:100EB00006FA07F1884305EB450603FA06F10843F5
:100EC0002061072A0FDA606B561E06EB86071F2685
:100ED00006FA07F18843561E06EB860605FA06F168
:100EE0000843606322E00D2A0FDA206BD61F06EB61
:100EF00086071F2606FA07F18843D61F06EB8606EB
:100F000005FA06F10843206310E0E06AA2F10D063D
:100F100006EB86071F2606FA07F18843A2F10D06A5
:100F200006EB860605FA06F10843E062F0BD21B142
:100F3000826842F48012826003E0826822F48012A8
:100F4000826070470146C86C80B270476348006891
:100F5000704721B1426842F48062426003E0426817
:100F600022F480624260704721B1426842F48052AC
:100F7000426003E0426822F48052426070470A46B1
:100F80000021816821F4E04111438160704721B163
:100F9000826842F40042826003E0826822F40042E8
:100FA0008260704721B1826842F40212826003E0DD
:100FB000826822F4021282607047014600208A682B
:100FC00012F4001F01D0012000E000207047F0B5AE
:100FD00004461546002000220026092911DDE0689C
:100FE000A1F10A0707EB470C072707FA0CF2904319
:100FF000A1F10A0707EB470703FA07F21043E06085
:101000000CE0206901EB410C072707FA0CF2904332
:1010100001EB410703FA07F210432061A06BC0F314
:101020000156EF1C06F1010CA7EB0C0707EB870C30
:101030001F2707FA0CF29043EF1C06F1010CA7EBF7
:101040000C0707EB870701FA07F21043A063F0BD16
:1010500010B50A4600210023816B21F44011531E74
:1010600041EA0351816310BD425070470246501857
:10107000806A80B270470A4600214168184B1940C7
:101080001143416070474162826270470A46002105
:10109000416821F01F0111434160704740B10F4981
:1010A0004439096841F400010C4A443A116007E0F0
:1010B0000A494439096821F40001084A443A116098
:1010C00070470246002013680B420BD001200AE053
:1010D00000DCFEBFFFFEF0FFFDF7F1FF4C240140F6
:1010E000FFFD3FFF00207047CA430260704770B5A4
:1010F00002460020002300240B125568CEB205EAF8
:10110000060415681D4202D00CB1012000E0002049
:1011100070BD00220A12D34303607047016821F0BA
:10112000010101600021016041608160C160864A67
:10113000811A90425BD012DC844AA0EB02019042FB
:101140003AD007DC824941181BD0142922D0282923
:101150007AD128E0142938D0282975D13EE0B1F59C
:101160006C7F5BD006DCB1F5627F49D0B1F5677F5B
:101170006AD14CE0B1F5717F57D0B1F5767F63D17C
:101180005BE072494439496841F00F016F4A443AC3
:1011900051605AE06D494439496841F0F0016B4AA9
:1011A000443A516051E069494439496841F47061F9
:1011B000664A443A516048E064494439496841F418
:1011C0007041624A443A51603FE06049443949689D
:1011D00041F470215D4A443A516036E05B4944393C
:1011E000496841F47001594A443A51602DE0574929
:1011F0004439496841F07061544A443A516024E0EE
:101200005449096841F00F01524A11601DE05149EB
:10121000096841F0F0014F4A116016E04D49096834
:1012200041F470614B4A11600FE04A49096841F48A
:101230007041484A116008E006E04649096841F4F7
:101240007021444A116000E000BF00BF704710B534
:101250000022026847F6F0739A430C6A8B682343B6
:101260000C6923434C6923438C692343CC69234392
:101270004C6A23438C6A23431A430260CB68436061
:101280000B6883604B68C36010BD00210160416042
:101290008160C160016141618161C161016241623E
:1012A0008162704721B1026842F00102026003E0EE
:1012B000026822F00102026070471AB103680B4312
:1012C000036002E003688B4303607047014648688F
:1012D00080B2704701460020002211F0805F03D0E9
:1012E0001C4B1B1F1A6802E0184B443B1A680A4249
:1012F00001D0012000E00020704710F0805F02D094
:101300001449086002E011494439486070470146B9
:101310000020002211F0805F03D00E4B1B1F1A68C3
:1013200002E00A4B443B1A680A4201D0012000E067
:101330000020704710F0805F02D00649086002E08C
:10134000024944394860704780000240440002402E
:10135000F8FFFDBF040402400CB50020019000908E
:101360004748006840F480304549086000BF444861
:10137000006800F4003000900198401C0190009833
:1013800018B90198B0F5A06FF1D13D48006810F48C
:10139000003F02D00120009001E000200090009862
:1013A000012843D13748006840F0100035490860F3
:1013B0000846006820F0030008600846006840F016
:1013C000020008602E4840682D4948600846406881
:1013D00048600846406840F48060486008464068BD
:1013E00020F47C1048600846406840F4E8104860EB
:1013F0000846006840F08070086000BF2048006820
:1014000010F0007FFAD01E48406820F003001C490D
:1014100048600846406840F00200486000BF184835
:10142000406800F00C000828F9D101E000BFFEE799
:101430000CBD10B5FFF790FF10BD10B51048006847
:1014400040F001000E490860084640680E49084017
:101450000B494860084600680C4908400849086084
:101460000846006820F4802008600846406820F4A0
:10147000FE00486000208860FFF7DBFF10BD000021
:1014800000100240002002400000FFF8FFFFF6FEBF
:1014900010B5FFF7D2FF00F049F810BD014649062C
:1014A0001D4A926942F001021B4B9A611B4A526825
:1014B00022F0E062194B5A601A4652680A435A6099
:1014C000704730B5164800684FF47A72B0FBF2F1FD
:1014D000B1F1807F00D31DE021F07F40401E4FF02E
:1014E000E022506150170F22002807DA13071D0E63
:1014F0000C4B00F00F04241F1D5503E013071C0EB6
:10150000094B1C5400BF00204FF0E02290610720DF
:10151000106100BF30BD000000100240000001401B
:10152000085B000818ED00E000E400E008B50121C8
:101530000820FFF74DF94FF22000ADF80000102011
:101540008DF8030003208DF8020069463948FEF744
:10155000A9FE4FF440413748FEF751FF4FF4405188
:101560003448FEF74AFF4FF480513248FEF747FFF8
:101570004FF440412F48FEF740FF01211020FFF7B4
:1015800027F94FF40050ADF8000010208DF803004B
:1015900003208DF8020069462748FEF783FE4FF4CA
:1015A00000512548FEF729FF01210420FFF710F91B
:1015B0004FF48070ADF8000010208DF80300032078
:1015C0008DF8020069461D48FEF76CFE4FF48071ED
:1015D0001A48FEF712FF4FF480711848FEF70FFF0C
:1015E0008020ADF8000048208DF8030069461148BE
:1015F000FEF758FE2020ADF8000048208DF80300CB
:1016000069460E48FEF74EFE01210420FFF7E0F880
:101610008020ADF8000010208DF8030003208DF825
:10162000020069460548FEF73DFE80210348FEF7AB
:10163000E6FE08BD000C014000100140000801401A
:1016400000BF062100E000BF0A00A1F1010399B22A
:10165000F9D1421E92B21000F3D1704710B5044682
:1016600000BFFA20FFF7ECFFFA20FFF7E9FFFA20AE
:10167000FFF7E6FFFA20FFF7E3FF601E80B20400E9
:10168000EFD110BD00B591B001210846FFF793F8E6
:1016900001214802FFF79CF801218802FFF798F822
:1016A0000320ADF82C0000208DF82F000BA9564820
:1016B000FEF7F8FD5548FFF731FD554800905548B5
:1016C00001900020029002200390002004908020CE
:1016D000059080000690800007902020089000026E
:1016E000099000200A9069464848FFF7B0FD0121A3
:1016F0004648FFF7D7FD4FF4C0200C9001208DF82D
:1017000034008DF835004FF460200E9000200F90CB
:1017100001208DF840000CA93D484C38FFF713FB21
:101720000223012208213A484C38FFF7A4FB01218B
:1017300037484C38FFF73EFB4FF4C0200C90002098
:101740008DF8340001208DF835004FF460200E90A4
:1017500000200F9001208DF840000CA92E48FFF7C3
:10176000F2FA0223012209212B48FFF784FB012111
:101770002948FFF71FFB012125484C38FFF70FFBD5
:1017800023484C38FFF72DFB00BF21484C38FFF7AA
:101790002DFB0028F9D11E484C38FFF731FB00BF64
:1017A0001B484C38FFF731FB0028F9D101211848BC
:1017B0004C38FFF734FB01211748FFF7F0FA1648C1
:1017C000FFF70FFB00BF1448FFF710FB0028FAD10A
:1017D0001148FFF715FB00BF0F48FFF716FB002865
:1017E000FAD101210C48FFF71AFB11B000BD0146E8
:1017F00021B908480068C0F3071070470548006821
:10180000C0F30750F9E70000000C01400800024057
:101810004C240140180000200028014008B5012197
:101820000420FEF7D5FF1020ADF800008DF803006E
:1018300003208DF8020069464D48FEF733FD102164
:101840004B48FEF7DAFD08BD08B51020ADF80000E2
:1018500048208DF8030069464548FEF723FD08BD82
:1018600008B51020ADF800008DF8030003208DF8B6
:10187000020069463E48FEF715FD08BD70B500251B
:10188000002424E000BF10213948FEF79CFD002809
:10189000F9D02820FFF7D4FE10213548FEF793FD3C
:1018A00001280DD100BF10213148FEF78CFD012821
:1018B000F9D0C4F1070101208840C0B2054304E01B
:1018C000C4F10701012088408543601CC4B2082C84
:1018D000D8DB284670BD10B50446FFF7C1FF1021C4
:1018E0002348FEF78CFD1220FFF7B8FE1021204898
:1018F000FEF783FD1E20FFF7A3FEFFF7A5FF1021D3
:101900001B48FEF760FD70BB00BF10211848FEF7B2
:101910005AFD0028F9D000BF10211548FEF753FDED
:101920000128F9D0FFF7AAFF2070FFF7A7FF60702A
:10193000FFF7A4FFA070FFF7A1FFE070FFF79EFF85
:101940002071FFF78DFF10210948FEF756FD207822
:1019500061780844A1780844E178084421798842F4
:1019600002D1012010BD01E00020FBE70020F9E7D3
:101970000008014045F25552084B1A601A46506063
:1019800091604AF6AA221A604CF6CC421A6070475F
:101990004AF6AA2001490860704700000030004064
:1019A00008B501210820FEF713FF8020ADF80000E4
:1019B00003208DF8020010208DF8030069462848A6
:1019C000FEF770FC01210820FEF702FF4020ADF871
:1019D000000003208DF8020010208DF803006946F6
:1019E0001F48FEF75FFC01210820FEF7F1FE2020D2
:1019F000ADF8000003208DF8020010208DF80300E0
:101A000069461748FEF74EFC01210820FEF7E0FE6C
:101A10001020ADF8000004208DF80300694610483E
:101A2000FEF740FC01210820FEF7D2FE0820ADF8A9
:101A3000000003208DF8020010208DF80300694695
:101A40000748FEF72FFC08BD10B5FFF7A9FF0821D6
:101A50000348FEF7D2FC80210148FEF7CEFC10BD02
:101A6000000C014070B50446002520E014F0800F02
:101A700004D02021FE48FEF7C0FC03E02021FC48F2
:101A8000FEF7BDFC0320FFF7DBFD4021F848FEF721
:101A9000B6FC0320FFF7D4FD4021F548FEF7ADFC6E
:101AA0000320FFF7CDFD6006040E681CC5B2082DAB
:101AB000DCDB70BD70B500251CE06006040E402123
:101AC000EB48FEF79CFC0320FFF7BAFD1021E84825
:101AD000FEF779FC012801D144F001040320FFF74F
:101AE000AFFD4021E248FEF788FC0320FFF7A8FD88
:101AF000681CC5B2082DE0DB204670BD70B50446F9
:101B00007E2000EA440040F080058021D848FEF79E
:101B100076FC2846FFF7A6FFFFF7CCFF064680219C
:101B2000D348FEF76AFC304670BD70B504460D46DA
:101B30007E2000EA44068021CD48FEF760FC304656
:101B4000FFF790FF2846FFF78DFF8021C848FEF77A
:101B500054FC70BD70B505460C462846FFF7CEFF15
:101B6000064646EA04012846FFF7DFFF70BD70B560
:101B700005460C462846FFF7C1FF064626EA040143
:101B80002846FFF7D2FF70BD10B51420FFF7B6FF4F
:101B9000044614F0030F03D103211420FFF7DAFFEA
:101BA00010BD10B503211420FFF7E1FF10BD10B5E3
:101BB0000821AF48FEF721FC0120FFF741FD082175
:101BC000AB48FEF71CFC0120FFF73AFD0821A848AE
:101BD000FEF713FC0120FFF733FD0F210120FFF773
:101BE000A4FF00BF0120FFF789FF10F0100FF9D10B
:101BF0000120FFF725FD3D211120FFF796FF1E2153
:101C00002D20FFF792FF00212C20FFF78EFF8D2162
:101C10002A20FFF78AFF3E212B20FFF786FF402175
:101C20001520FFF782FF10BD10B50446412C24D1CA
:101C300008210846FFF79BFF3D211120FFF775FFA4
:101C400086211720FFF771FF7F212620FFF76DFF08
:101C50001E212D20FFF769FF00212C20FFF765FFD3
:101C60008D212A20FFF761FF3E212B20FFF75DFF2A
:101C70000220FFF7E5FCFFF787FF10BD2DE9FE4FBF
:101C80000646884691469A46DDF830B0BB20029061
:101C90000020019000900C2E06D00E2E09D11220AB
:101CA00001901020009005E07720019030200090F6
:101CB00000E000BF00BF019840F080010220FFF764
:101CC00034FF80210420FFF752FF00210120FFF79D
:101CD0002CFF80210A20FFF73DFF002505E018F8C2
:101CE00005100920FFF721FF6D1C4D45F7D3314644
:101CF0000120FFF71AFF0C2E03D180210D20FFF7E2
:101D000029FF4FF47A7500BF0420FFF7F7FE044661
:101D10006D1E2DB114F0010F02D100980442F3D0D2
:101D200080210D20FFF723FF95B30620FFF7E6FE85
:101D300010F01B0F2DD1262002900198204010F0AA
:101D4000010F01D0CC2002900C2E24D10A20FFF7E5
:101D5000D5FE04460C20FFF7D1FE00F007072FB197
:101D6000601E07EBC000CBF8000002E0E000CBF8FB
:101D7000000004B90124122C00DD1224002505E026
:101D80000920FFF7BBFE0AF805006D1CA542F7D33A
:101D900001E0BB20029080210C20FFF7DBFE002138
:101DA0000120FFF7C2FE0298BDE8FE8F70B588B033
:101DB00005460C4608210846FFF7D9FE07210D20ED
:101DC000FFF7B3FE03211420FFF7C4FE8DF80C507B
:101DD00002A803AB012203A900900C20FFF74EFFDD
:101DE0000646262E09D10298102806D19DF80C002F
:101DF00020709DF80D00607000E0BB26304608B0F2
:101E000070BDF0B587B00546002708210846FFF7EA
:101E1000AEFE00210D20FFF788FE80210E20FFF787
:101E2000A6FE93208DF8080020208DF8090001A857
:101E300002AB022202A900900C20FFF71FFF06460A
:101E4000262E10D1002407E002A8005D285502A824
:101E5000005D4740601CC4B2042CF5DB02A8005DA5
:101E6000B84200D0BB2680210E20FFF773FE01E0B0
:101E7000000C0140304607B0F0BD2DE9F0410746A7
:101E80008846154604210520FFF771FE0021012038
:101E9000FFF74BFE80210A20FFF75CFE002405E0DF
:101EA000395D0920FFF741FE601CC4B24445F7DBF1
:101EB00003210120FFF739FEFF2400BF0520FFF7B3
:101EC0001DFE0646601EC4B214B116F0040FF5D014
:101ED0002220FFF713FE28702120FFF70FFE687005
:101EE000BDE8F08170B588B0054693208DF80C00F0
:101EF00070208DF80D0000208DF8120000240BE0FA
:101F0000295D03AAA01C11549DF81200295D4840C8
:101F10008DF81200601CC4B2042CF1DB0DF1130229
:101F2000072103A8FFF7A9FF08210846FFF71FFEB6
:101F300002A803AB092203A900900C20FFF79EFE24
:101F40000646262E03D10298182800D100E0BB26B1
:101F5000304608B070BD2DE9F04387B006460F4605
:101F6000904699468DF808608DF80970002406E0C7
:101F700018F8041002AAA01C1154601CC4B2062C4C
:101F8000F6DB002407E019F8041002AA04F10800A7
:101F90001154601CC4B2062CF5DB01A802AB0C2264
:101FA00002A900900E20FFF769FE0546262D05D1F7
:101FB0000820FFF7A3FD10F0080F00D1BB2528462D
:101FC00007B0BDE8F083F0B587B006460F46A02005
:101FD0008DF808008DF809600DF10A02022102A8AF
:101FE000FFF74BFF01A802AB042202A900900C20CE
:101FF000FFF744FE0546262D08D10198042805D197
:102000009DF8080000F00F000A2800D0BB25262DFF
:1020100022D1002404E0385D02A90855601CC4B236
:10202000102CF8DB06AA102102A8FFF726FF01A852
:1020300002AB122202A900900C20FFF71FFE0546FA
:10204000262D08D10198042805D19DF8080000F03C
:102050000F000A2800D0BB25284607B0F0BDF0B518
:1020600087B005460E4630208DF808008DF80950DF
:102070000DF10A02022102A8FFF7FFFE01A802AB40
:10208000042202A900900C20FFF7F8FD0746262F36
:102090000CD10198902809D1002404E002A8005D29
:1020A0003055601CC4B2102CF8DB00E0BB2738466A
:1020B00007B0F0BD00B587B050208DF808000020B3
:1020C0008DF809000DF10A02022102A8FFF7D5FEE2
:1020D00001A802AB042202A900900C20FFF7CEFD5C
:1020E000262007B000BDF8B504460D4617461E462B
:1020F0000020009069465220FFF758FE6846FFF71F
:1021000080FE2046FFF7EEFE23462A46102160207F
:10211000FFF721FF27B131461020FFF7A0FF03E0B2
:1021200031461020FFF74FFFFFF7C4FFF8BD000056
:1021300010B52021FD48FEF746F958B90A20FFF7EF
:102140008DFA2021F948FEF73EF930B90120F8490F
:10215000086002E00020F6490860F54800680128A0
:1021600021D14102F348FEF72EF990B90A20FFF77A
:1021700075FA4FF40071EF48FEF725F998B9012080
:10218000ED490860ED490860C103EA48FEF735F9FA
:1021900009E00020E8490860E84908604FF4004180
:1021A000E448FEF72CF910BD10B5E548FFF793FBA6
:1021B00010BDFFF786F9F3E3E248007801287DD1EE
:1021C000642300221146104602F032FB0020DD4954
:1021D0000870DDA1DE4802F0B1FC28B10120DD4924
:1021E00008600020DC490860D948007854280DD1E7
:1021F000D7484078432809D1D5488078502805D160
:102200000120D44908600020D3490860D3A1D048F8
:1022100002F094FC90B14FF48051C648FEF7EDF8FF
:102220004FF48071C148FEF7E8F80120CE490860FC
:10223000CE4A08460168CEA002F0DCFFCFA1C44818
:1022400002F07CFC90B14FF48051BA48FEF7D7F809
:102250004FF48071B548FEF7D2F80020C2490860FB
:10226000C24A08460168C2A002F0C4FFC6A1B8482D
:1022700002F064FC38B14FF48051AE48FEF7BFF86D
:102280000120B9490860C3A1B14802F057FC38B138
:102290004FF48051A748FEF7B0F80020B24908601B
:1022A000BFA1AB4802F04AFC38B14FF40051A1483D
:1022B000FEF7A5F80120BD49086000E0AAE2BCA134
:1022C000A34802F03BFC38B14FF400519948FEF7A7
:1022D00094F80020B5490860B8A19D4802F02EFC92
:1022E00070B14FF400419348FEF787F80120B649DA
:1022F00008609248026808460168B4A002F07AFFBC
:10230000B5A1934802F01AFC70B14FF4004189481E
:10231000FEF775F80020AC49086088480268084656
:102320000168AAA002F066FFAEA1894802F006FC8F
:1023300020B34FF400417F48FEF75FF801207F494A
:10234000086008460268A0480168A0A002F052FF99
:102350004FF4967301220021084602F069FA4FF407
:1023600000417448FEF74BF80020744908600846A5
:1023700002689548016895A002F03CFF9CA1744852
:1023800002F0DCFB38B14FF400416A48FEF737F841
:1023900000206A49086099A16D4802F0CFFB98B30C
:1023A0004FF400516348FEF72AF800209649086070
:1023B0000BE09648944A12688118954801F0D4F8C9
:1023C00091480068401C904908608F4800680728C1
:1023D000EFD34FF4FA7300221146104602F028FAA8
:1023E0000020894908600BE08848874A12688118F4
:1023F000874801F0B9F884480068401C82490860A9
:10240000814800680728EFD382A1514802F096FB6B
:1024100098B34FF400514748FDF7EFFF00207A4989
:1024200008600BE07E48784A12688118784801F00D
:102430009BF875480068401C734908607248006842
:102440000728EFD34FF4FA7300221146104602F02A
:10245000EFF900206C4908600BE071486A4A126885
:1024600081186B4801F080F867480068401C664995
:102470000860654800680728EFD36AA1344802F075
:102480005DFB70B30020604908600BE068485E4A5D
:10249000126881185E4801F067F85B480068401CCC
:1024A00059490860584800680728EFD34FF4FA7379
:1024B00000221146104602F0BBF900205249086084
:1024C0000BE05B48504A12688118514801F04CF803
:1024D0004D480068401C4C4908604B48006807287C
:1024E000EFD354A11A4802F029FBF0B1002046496D
:1024F00008600BE05248444A12688118444801F0D1
:1025000033F841480068401C3F4908603E48006875
:102510000728EFD34FF4FA7300221146104602F059
:1025200087F900203849086098E09BE000080140E6
:102530001C080020000C0140180800201009002091
:10254000C40C0020DC0C00205443504F4B00000012
:10255000DF0C0020B00C0020B40C002046595F3086
:10256000325F3030313A310004090020900F0020F2
:102570005325642C25732C450000000046595F301C
:10258000325F3030313A3000323030303939323722
:10259000373A31003230303039393237373A30005B
:1025A0003230303039393237383A310008090020BA
:1025B0003230303039393237383A3000323030301A
:1025C00039393237393A31000C0900205325642C4F
:1025D00025642C4500000000323030303939323764
:1025E000393A30003230303039393238303A31000F
:1025F0003230303039393238303A300032303031E0
:1026000031303537373A3100B80C0020200900202E
:10261000004400403230303131303537373A300005
:10262000270900203230303131303537383A310027
:102630002E0900203230303131303537383A300011
:1026400035090020FD48FE4A12688118FD4800F057
:102650008BFFFB480068401CF9490860F848006897
:102660000728EFD3F8A1FB4802F068FA70B3002006
:10267000F34908600BE0F848F14A12688118F14804
:1026800000F072FFEE480068401CED490860EC481D
:1026900000680728EFD34FF4FA7300221146104662
:1026A00002F0C6F80020E64908600BE0EA48E44A78
:1026B00012688118E34800F057FFE1480068401CA9
:1026C000DF490860DE4800680728EFD3E3A1E1484E
:1026D00002F034FA70B30020D94908600BE0E248F8
:1026E000D74A12688118D74800F03EFFD4480068E6
:1026F000401CD3490860D24800680728EFD34FF444
:10270000FA7300221146104602F092F80020CC49DC
:1027100008600BE0D448CA4A12688118C94800F022
:1027200023FFC7480068401CC5490860C4480068CA
:102730000728EFD3CDA1C74802F000FA70B30020FC
:10274000BF4908600BE0CC48BD4A12688118BD48FB
:1027500000F00AFFBA480068401CB9490860B84850
:1027600000680728EFD34FF4FA7300221146104691
:1027700002F05EF80020B24908600BE0BE48B04AA3
:1027800012688118AF4800F0EFFEAD480068401CA9
:10279000AB490860AA4800680728EFD3B7A1AD4845
:1027A00002F0CCF970B30020A54908600BE0B648F0
:1027B000A34A12688118A34800F0D6FEA04800681A
:1027C000401C9F4908609E4800680728EFD34FF4DB
:1027D000FA7300221146104602F02AF800209849A8
:1027E00008600BE0A848964A12688118954800F0E6
:1027F000BBFE93480068401C9149086090480068FF
:102800000728EFD3A1480178924802F08CF9002004
:102810009E4908709E48007801287CD1C823002278
:102820001146104602F004F8002099490870AFF2F2
:10283000A821884802F082F920B14FF480419548E0
:10284000FDF7DDFD94A1834802F078F910B1002076
:10285000924908609248007801280BD1904840784E
:10286000032807D18E4800798D49C97800EB0120F3
:102870008C4908808CA1774802F060F9B8B18BA12F
:10288000744802F05BF990B18448006801280ED1C9
:1028900085A1704802F052F9841C1A22214685480D
:1028A00002F05EF90020834988767C490860694817
:1028B00000783A281FD16748807801281BD16548E5
:1028C0008079012803D100207B49086005E0614838
:1028D000807910B90120784908605E48C0790128E4
:1028E00003D100207549086005E05A48C07910B945
:1028F000012072490860574800783A2820D155488D
:10290000807802281CD153488079012804D1002006
:102910006B49086006E07CE14E48807910B90120DF
:10292000674908604B48C079012803D100206549F8
:10293000086005E04748C07910B901206149086086
:1029400061A1444802F0FAF8A8B14FF4804151481F
:10295000FDF753FD80215F48FDF74FFD0A2300225C
:102960001146104601F064FF5BA000F018FE8021C4
:102970005848FDF744FD5DA1364802F0DFF8B8B1D4
:102980004FF480414348FDF73AFD80215148FDF75F
:1029900034FD0A2300221146104601F049FF00E0F1
:1029A000C4E155A000F0FBFD80214A48FDF727FD5A
:1029B000AFF22C41274802F0C1F8A8B14FF4004112
:1029C0003448FDF71AFD80214248FDF716FD0A2321
:1029D00000221146104601F02BFF4DA000F0DFFD54
:1029E00080213C48FDF70BFDAFF25841194802F039
:1029F000A5F8A8B14FF400412648FDF700FD80215D
:102A00003448FDF7FAFC0A2300221146104601F073
:102A10000FFF44A000F0C3FD80212E48FDF7EFFC1E
:102A2000AFF284410B4802F089F828B14FF400411D
:102A30001848FDF7E4FC81E091E000003509002032
:102A4000B80C00200044004032303031313035378E
:102A5000393A3100DF0C00203C090020323030319F
:102A600031303537393A30004309002032303031C7
:102A700031303538303A31004A09002032303031B7
:102A800031303538303A300051090020100E002026
:102A9000DD0C0020000C0140562C000040080020F6
:102AA000430D0020D40C0020412C00004750524D13
:102AB000430000002008002004090020080900202D
:102AC0000C090020100900203230303039393237FB
:102AD000363A3100000801400D0A52454345495637
:102AE0004520423134204F4E210D0A003230303023
:102AF00039393237363A30000D0A52454345495686
:102B00004520423134204F4646210D0A0000000086
:102B10000D0A5245434549564520423135204F4E16
:102B2000210D0A000D0A52454345495645204231C0
:102B300035204F4646210D0A000000008021FC4848
:102B4000FDF75BFC0A2300221146104601F070FEDF
:102B5000F8A000F024FD8021F548FDF750FCAFF20D
:102B6000B051F74801F0EAFFA8B14FF48051F548A1
:102B7000FDF743FC8021EE48FDF73FFC0A230022CD
:102B80001146104601F054FEEAA000F008FD802135
:102B9000E748FDF734FCAFF2DC51E94801F0CEFF25
:102BA000A0B12021E748FDF72AFC8021E048FDF78D
:102BB00024FC0A2300221146104601F039FEDDA054
:102BC00000F0EDFC8021DA48FDF719FCAFF2F85176
:102BD000DB4801F0B3FFA0B12021DA48FDF70DFC7E
:102BE0008021D348FDF709FC0A2300221146104634
:102BF00001F01EFECFA000F0D2FC8021CC48FDF7F2
:102C0000FEFBD1480178D14801F08DFF0020CE496C
:102C10000870CF48007801287ED1C82300221146D1
:102C2000104601F005FE0020C9490870AFF2A86106
:102C3000C34801F083FF38B14FF48051C148FDF71C
:102C4000DEFB0120C3490860AFF2B861BC4801F067
:102C500075FF38B14FF48051BA48FDF7CEFB002024
:102C6000BC490860AFF2C861B54801F067FF38B1F0
:102C70004FF40051B348FDF7C2FB0120B64908608C
:102C8000AFF2D461AE4801F059FF38B14FF40051B2
:102C9000AC48FDF7B2FB0020AF490860AFF2E46139
:102CA000A74801F04BFF38B14FF48041A548FDF72C
:102CB000A4FB0120A9490860AFF2E461A04801F03B
:102CC0003DFF38B14FF480419E48FDF798FB00204E
:102CD000A2490860AFF2F461994801F02FFF38B1C2
:102CE0004FF400419748FDF788FB01209C4908609C
:102CF000AFF20471924801F021FF38B14FF4004166
:102D00009048FDF77CFB00209549086095480178C4
:102D1000954801F008FF00E002E0002091490870AA
:102D2000962300221146104601F082FDFFF744BAB7
:102D3000FEF7C7FB2AE080217D48FDF75EFB0A23F2
:102D400000221146104601F073FD002087490860FB
:102D50000BE08748854A12688118864800F004FC19
:102D600082480068401C8149086080480068082843
:102D7000EFDB00207D49086080216D48FDF73FFBB7
:102D8000962302220021084601F052FDD3E7FEF708
:102D900098FB24E07848006820B94FF40051774848
:102DA000FDF72DFB7448006801280FD141037348DB
:102DB000FDF723FB4FF4967301220021084601F032
:102DC00037FD4FF400516D48FDF719FBFFF7ECF9A3
:102DD0004FF4FA7300221146104601F029FDD9E79D
:102DE000FEF76FFB08E0FEF7D3FD4FF4FA73002205
:102DF0001146104601F01CFDF5E710B56049522060
:102E0000FEF7D4FF5F490870262864D05C49522041
:102E1000FEF7CCFF5B4908700846007826285AD197
:102E2000BB2008705648FEF7ECFF5649087008466C
:102E3000007826280AD1012053490860BB20514957
:102E400008704F48FFF74EF84E4908704D4800781B
:102E500026280AD1BB204B490870494B4B4A012117
:102E60006020FFF778F84749087046480078262820
:102E700008D1BB204349087045490120FFF7EFF80E
:102E8000404908703F480078262824D1BB203D499E
:102E900008703F48007846281DD13D4840785928A1
:102EA00019D14FF480712248FDF7A7FA4FF48051F1
:102EB0002448FDF7A2FA962301220021084601F0DA
:102EC000B7FC4FF480511F48FDF799FA4FF4807119
:102ED0001748FDF794FA10BD10B5C823052200214C
:102EE000084601F0A5FC2BA002F084F9C8230022BB
:102EF0001146104601F09CFC27A002F07BF96423E8
:102F000000221146104601F093FC27A002F072F94E
:102F100000230A221946184601F08AFC2DA002F06F
:102F200069F9C82302220021084601F081FC59E01A
:102F30000008014052454345495645204F4B21006A
:102F4000DF0C0020000C0140110E0020430D00207A
:102F5000DE0C002004090020080900200C090020D4
:102F600010090020120E0020A70D0020CC0C00201C
:102F7000F808002000440040B00C00200010014080
:102F8000D60C0020DA0C00208C09002085090020D6
:102F9000900F00202B2B2B0041542B43574D4F44B7
:102FA000453D310D0A00000041542B43574A415022
:102FB0003D2266656E677975616E5F776C77222C4E
:102FC0002266656E677975616E5F776C77220D0A90
:102FD0000000000041542B4349504D55583D300DE1
:102FE0000A00000075A000F0C7FA4FF4FA7301223E
:102FF0000021084601F01CFC7CA002F0FBF84FF415
:10300000FA7300221146104601F012FC7BA002F078
:10301000F1F84FF4FA7308220021084601F008FC89
:1030200010BD1CB5FEF74DFA27E0FFF781F86423C9
:1030300000221146104601F0FBFBFFF7DEFE72484E
:103040000068012819D17148C07870498978CDE9A4
:1030500000106E48437802786DA1724802F0DAF8E9
:10306000704971A002F0C6F83223012200210846FF
:1030700001F0DEFB002064490860D6E786B0FEF769
:1030800020FA40F259610420FEF774FC0523674AD8
:103090000021AFF6E16001F033F80823644A002113
:1030A000AFF2733001F02CF80A23624A0021AFF22C
:1030B0008D0001F025F80C235F4A0021AFF231307A
:1030C00001F01EF80F235D4A0021AFF2EB2001F062
:1030D00017F85BA002F08EF86EE06423082200214E
:1030E000084601F0A5FB58480068401C5649086096
:1030F000642308220021084601F09AFB0020FEF715
:1031000076FB524908700120FEF771FB50490870A8
:103110005049487801F046FE824600224E4B01F0AD
:10312000D2FD06460F464B49087801F03BFE80462B
:1031300032463B4601F020FD044601F053FE01906B
:1031400001F03DFECDE904014249C87801F02AFEB4
:1031500080460022404B01F0B6FD04460D463D4935
:10316000887801F01FFE064622462B4601F004FD3A
:10317000824601F037FE019001F021FECDE9020107
:10318000DDE90401CDE9000134A0DDE9022302F00C
:1031900031F836480068012805D1354A35480168BC
:1031A00035A002F027F828480068042804D9002038
:1031B0002E490860244908608FE7000041542B53D2
:1031C0004156455452414E534C494E4B3D312C22B1
:1031D0003131322E37342E39382E3339222C3836CD
:1031E00034372C22544350220D0A000041542B4303
:1031F00049504D4F44453D310D0A000041542B527A
:1032000053540D0A000000008C090020D60C002049
:103210002530325825303258253032582530325832
:1032200000000000A00F002025730000FC1000200B
:103230003C1200207C130020BC140020FC15002050
:103240007265737461727400B40C0020D00C00209D
:10325000D10C0020C40C002000002440472C252E57
:1032600031662C252E31662C45000000B00C002064
:10327000900F002004090020532C25642C25732C6A
:103280004500000000BF704700BFCE4A128812F010
:10329000400FFAD0C2B2CB4B1B1D1A80704700B54D
:1032A00087B0012144F20400FDF792FA4FF4007058
:1032B000ADF8180018208DF81B0003208DF81A00B7
:1032C00006A9C148FCF7EEFF4FF48060ADF8180086
:1032D00004208DF81B0006A9BB48FCF7E3FF25205E
:1032E0008DF8040000208DF8050001208DF80600FF
:1032F0008DF8070001A8FDF7D8FA4FF4E1300290ED
:103300000020ADF80C00ADF80E00ADF81000ADF8DF
:1033100014000C20ADF8120002A9AA48FDF777FBB3
:10332000012240F22551A748FDF7EBFB0121A548FA
:10333000FDF7DBFB07B000BD00B589B00121A34854
:10334000FDF753FAA248FDF719FB0420ADF8200061
:1033500018208DF8230003208DF8220008A99A4830
:10336000FCF7A0FF0820ADF8200004208DF8230012
:1033700008A99548FCF796FF26208DF80C00002040
:103380008DF80D0002208DF80E0001208DF80F0041
:1033900003A8FDF78AFA4FF4165004900020ADF808
:1033A0001400ADF81600ADF81800ADF81C000C20A4
:1033B000ADF81A0004A98648FDF729FB0020ADF8F6
:1033C0000400ADF80600ADF80800ADF80A0001A948
:1033D0007F48FDF773FB012240F225517C48FDF741
:1033E00090FB01217A48FDF780FB09B000BD00B5D4
:1033F00089B001217748FDF7F8F97748FDF7BEFA63
:103400004FF48060ADF8200018208DF823000320D1
:103410008DF8220008A97148FCF744FF4FF40060C2
:10342000ADF8200004208DF8230008A96B48FCF7B4
:1034300039FF27208DF80C0000208DF80D000320A7
:103440008DF80E0001208DF80F0003A8FDF72DFA6E
:103450004FF4E13004900020ADF81400ADF81600F0
:10346000ADF81800ADF81C000C20ADF81A0004A946
:103470005948FDF7CCFA0020ADF80400ADF806007D
:10348000ADF80800ADF80A0001A95348FDF716FB96
:10349000012240F225515048FDF733FB01214E48EF
:1034A000FDF723FB09B000BD10B540F2255145489A
:1034B000FDF7E6FB58B14348FDF783FBC1B248482E
:1034C00002780078401C464B18704648815440F200
:1034D00025513C48FDF7FAFB41480078032802DDFE
:1034E00001204149087010BD10B540F225513848FF
:1034F000FDF7C6FB58B13648FDF763FBC1B23B4848
:1035000002780078401C394B18703948815440F2D9
:1035100025512F48FDF7DAFB34480078032802DDF7
:1035200001203449087010BD10B540F225512A48D9
:10353000FDF7A6FB58B12848FDF743FBC1B2284868
:1035400002780078401C264B18702648815440F2BF
:1035500025512148FDF7BAFB21480078032802DDF8
:1035600001202549087010BD0A78828000BF0288BA
:1035700012F0400FFBD0704710B504460BE000BFBF
:1035800040211048FDF770FB0028F9D021780D4844
:10359000FDF713FB641C20780028F0D110BD10B596
:1035A00004460BE000BF40210948FDF75DFB002801
:1035B000F9D021780648FDF700FB641C207800282C
:1035C000F0D110BD003801400008014004000200A5
:1035D000004400400800040000480040000C014086
:1035E000100E0020DF0C0020DC0C0020110E00204B
:1035F000430D0020DD0C0020DE0C002002460020E0
:1036000005E011F8013B02F8013B431CD8B20B78EE
:10361000002BF6D1137070472DE9F04105460E4698
:103620001446002714B90020BDE8F0811DB904201C
:1036300020700020F8E71EB90C2020700020F3E76E
:10364000FD480078002803DD112020700020EBE702
:103650002878012808D0022807D0032802D004289F
:1036600004D100E000BF00BF00BF03E001202070D4
:103670000020D9E700BF01F0A7F9074605F10F01C7
:103680003046FFF7BBFF8046384601F0A1F9002025
:1036900020704046C8E70146002002E0491C421C59
:1036A000D0B20A78002AF9D170472DE9F0410546D9
:1036B0000E4614464FF000080CB9BDE8F08115B96C
:1036C00004202070F9E716B90C202070F5E7DA48DD
:1036D0000078002802DD12202070EEE7287801280B
:1036E00008D0022807D0032802D0042804D100E023
:1036F00000BF00BF00BF02E001202070DDE700BF77
:1037000001F062F980463046FFF7C5FF07460F2FEC
:1037100005DD404601F05CF90B202070CDE7314615
:1037200005F10F00FFF76AFF404601F051F9002054
:10373000207000BFC1E77CB5002514E0694628462B
:1037400000F067FF064666B9BC4850F8254044B112
:10375000012C06D0D4E9020100EB8100A06301989E
:10376000E063681CC5B21F2DE8DD7CBD002402E0CB
:10377000C82001F02DF8B24800780028F8D0B148F0
:1037800000686421B0FBF1F0AE49086008460068AB
:1037900028B90020AC490870FF2000F085FF00BF69
:1037A00001F012F90446A9480068A9490860002000
:1037B000A6490860204601F00BF9A5480068A14918
:1037C0000968B0FBF1F0C0F164009F49087001F096
:1037D00052F9FFF7B0FF642000F0FAFFE0E700B510
:1037E00087B00320002180229A4BCDE90132CDE938
:1037F00003104FF6FE701E23974A0090AFF293001D
:1038000000F0DAFC06AA95A11E2000F05EFE07B0CB
:1038100000BD002400BF01F0D7F804468B480068C3
:10382000401C8A490860204601F0D2F801F022F9D4
:10383000F1E700B587B00320002180228B4BCDE952
:103840000132CDE903104FF6FF701F23884A009024
:10385000AFF2410000F0B0FC06AA86A11F2000F0E4
:1038600034FE07B000BD04E0002200F8012B4A1E20
:1038700091B20029F8DC704730B54FF4A07181484F
:10388000FFF7F1FF7F4B03F1200500240AE0002041
:1038900018705D603F20D8730021197420332035E3
:1038A000601C84B2092CF2DB0020187058603F20A5
:1038B000D8730021197473487349086030BD30B55E
:1038C0004FF4B4617148FFF7CEFF80215B48FFF7EA
:1038D000CAFF6E4B03F1500500240AE05D613F20F2
:1038E00083F8400000214120C15450335035601C02
:1038F000C4B2112CF2D3002058613F2083F840005D
:1039000000214120C1540020614908605F4861499D
:10391000086030BD0022604B1A706049002004E04E
:10392000002201F8012B421CD0B20428F8DB00224F
:103930005B4B1A705B4B1A705B4B1A605B4B1A60E7
:10394000704700205A4908603B490870594908707F
:103950005949087059490870594908603B4908603D
:103960003B4908603749086035490870704710B511
:1039700001F07CF8FFF7E5FFFFF7CCFFFFF79FFFB3
:10398000FFF77AFFFFF755FFFFF729FF01F06FF808
:1039900010BD4A480078012808D127480078FF2840
:1039A00004D225480078401C2349087070474549D7
:1039B000394A1278885C3949095C424A515C01EB0A
:1039C000C001384A1170704710B500243B48007898
:1039D000012830D100F0F8FF04461748007800288D
:1039E00004DD15480078401E13490870124800781D
:1039F000F0B930480078D8B9FFF7D9FF29480078E6
:103A000027490978884213D00C482649097850F88C
:103A100021002549086008460068C06A401C096802
:103A2000C86227480068401C2549086000F0E8FF8C
:103A3000204600F0CDFF10BD290E0020401B0020C5
:103A4000280E0020200E00201C0E0020340E002026
:103A5000240E0020401700203C19002075432F4FF2
:103A6000532D49492053746174000000401900200F
:103A70003C1B002075432F4F532D49492049646C4E
:103A80006500000000160020180E0020C01B00205A
:103A9000440E00203C0E00202D0E00202E0E002093
:103AA0002B0E00202C0E0020400E0020380E00208F
:103AB0004C0E00202A0E0020330E0020320E002073
:103AC000140E00201C5B000810B50024FE4800788E
:103AD000012811D100F078FF0446FC48007840B975
:103AE000FB480078FF2804D2F9480078401CF849C8
:103AF0000870204600F06CFF10BD10B5002400F0E7
:103B000063FF0446F1480078F0B9F1480078D8B96D
:103B1000FFF74DFFEF480078EF490978884213D04E
:103B2000EE48EC49097850F82100ED490860084654
:103B30000068C06A401C0968C862EA480068401C06
:103B4000E849086000F057FF204600F041FF10BD33
:103B500010B50024DC480078012822D100F034FFA1
:103B60000446DB480078002818DDD9480078401E5C
:103B7000D74908700846007860B9D448007828B959
:103B8000204600F025FFFFF7B8FF0AE0204600F0CE
:103B90001FFF06E0204600F01BFF02E0204600F079
:103BA00017FF10BD10B5C848007890B9FFF7FFFEA9
:103BB000C8480078C8490870C848C649097850F80C
:103BC0002100C749086008460068C749086000F03E
:103BD00002FF10BD10B50024022000F0F9FD00F036
:103BE000F3FE04460020C1490860204600F0F0FEC4
:103BF000642000F0EDFD00F0E7FE0446BB480068DD
:103C0000BB4908600120BB490870204600F0E0FE77
:103C100010BD70B5002600F07EFF00F0D5FE064610
:103C2000B5480068401CB4490860304600F0D0FE3A
:103C3000A5480078012858D1B048007820B1012863
:103C400004D0022809D103E001250BE0002509E09A
:103C500001250120A949087004E001250020A74999
:103C6000087000BF00BF05B970BDA548046838E002
:103C700000F0AAFE0646208C78B3208C401E00047B
:103C8000000C208429D194F8220010F0370F09D0BD
:103C900014F8220F20F03700207001206070A4F18A
:103CA000220402E0002084F8230094F8220010F09F
:103CB000080F12D104F12604A0789249097840EA4D
:103CC00001009049087020788F49085C617840EACB
:103CD000010014F826198C4A50546469304600F0EB
:103CE00077FE94F824001F28C2D100BFBCE74FF430
:103CF0008F707047704710B590F8262001F10B03C4
:103D00009B5C90F82740A34301F10B04A354234686
:103D10009B5C23B98B7A90F82840A3438B7210BD2B
:103D20002DE9F04F05460F4690469946A87A774907
:103D30000E5C05F10B00805D11F800B00BEBC600C6
:103D400000F0FF0A654850F82A40002024F8200FB0
:103D500000BFA07820EA0800A07084F80390A07843
:103D6000A4F1200410F0080F0DD194F82800654943
:103D700009780843634908706348805D94F8271008
:103D800008436149885529462046FFF7B4FF50464D
:103D9000BDE8F08F10B5544A1268D061524A1268DB
:103DA00092F8263000F10B02D25C4F4B1B6893F85F
:103DB00027301A434C4B1B6893F8264000F10B0345
:103DC0001A55827A484B1B6893F828301A4382723E
:103DD000454A126892F826104B4A525C424B1B68C7
:103DE00093F827309A43484B5A541A46525C42B9CA
:103DF0003D4A126892F82830424A12789A43414B61
:103E00001A7010BD0023837200F10B01002204E040
:103E1000002301F8013B531CDAB2042AF8DB704797
:103E200005E011F8013B00F8013B531E9AB2002A4D
:103E3000F7DC70472DE9F84F05460E4617469846C1
:103E4000DDE90BABDDF828900020009000F0BCFD10
:103E500000902F480468002C7ED054F8140F2C4991
:103E60000860009800F0B4FD44F8146C257400203C
:103E7000A073E073A08144F810AC44F8089C44F8A7
:103E80000C7C24F804BC24F8028C6075E810A07443
:103E900005F007006074A17C012088402075617CDA
:103EA00001208840E0740020A060A0612062E061F1
:103EB0006062A0623F2084F82C00A4F114044FF04B
:103EC00000014FF0410025E0320E0020290E0020B5
:103ED0002A0E00202C0E00202B0E0020401B00205C
:103EE000400E0020140E0020380E0020340E00205A
:103EF000200E0020280E00204C0E0020480E00202E
:103F0000440E00202D0E00202E0E00201C5B000809
:103F10003C0E00200155204600F0FCFD204600F03C
:103F2000A7FD00F051FD00901A4840F825401A48BE
:103F3000006860610020A0611748006810B1164851
:103F4000006884611448046004F12604A0781349D1
:103F5000097840EA010000E017E010490870207875
:103F60000F49085C617840EA010014F826190C4AF0
:103F700050540C48007800F101000A49087000987C
:103F800000F026FD0020BDE8F88F009800F020FD2D
:103F90004220F8E7401B0020440E00202D0E002098
:103FA0002E0E0020330E00202DE9FF5F81460F46C4
:103FB00000200090B9F11F0F06DBB9F1FF0F03D00D
:103FC0002A2004B0BDE8F09F1F2F01DB2A20F8E76C
:103FD00000F0FAFC0090F94850F8270020B1009852
:103FE00000F0F6FC2820ECE7B9F1FF0F03D1F4480C
:103FF000006890F82490F14850F8294024B90098BE
:1040000000F0E6FC2920DCE7012C04D1009800F048
:10401000DFFC4320D5E74FEAE70807F007000390ED
:10402000012000FA08F000F0FF0A01210398814006
:1040300001F0FF0B0020E14941F82900084640F853
:10404000274014F8266FA07802906078A4F1260427
:104050000190DC48815D019801421CD0D948805D07
:1040600001998843D74988550846805D28B9D648C4
:10407000007802998843D4490870D348007840EA10
:104080000A00D1490870CF4810F8080040EA0B0038
:10409000CC4901F80800E569E5B105F10B00805D48
:1040A0000199884305F10B0188550846805D18B9D0
:1040B000A87A02998843A872A87A40EA0A00A872EE
:1040C00005F10B0010F8080040EA0B0005F10B01A8
:1040D00001F8080084F8247084F82680039884F896
:1040E000250084F828A084F827B0009800F070FC20
:1040F000B6480078012801D1FFF7FFFC002060E7F7
:104100002DE9FE4F06460F4690461C464FF000092B
:104110001F2C02DD2A20BDE8FE8F00F055FC8146F1
:10412000AB480078002804DD484600F051FC3C20F4
:10413000F1E7A24850F8240060BB01209F4941F8F4
:104140002400484600F044FC0023424639463046ED
:1041500000F092FC82460020009001900346024647
:10416000514602902046FFF765FE054635B997484F
:10417000007801280CD1FFF7C0FC09E000F024FC16
:10418000814600208D4941F82400484600F020FC7B
:104190002846C0E7484600F01BFC2820BBE712F089
:1041A000010F08D012F0020F05D002E0491E0023D3
:1041B00008C00029FAD170472DE9F04F85B081463B
:1041C0008A4693461C46DDE90F78129D0020039035
:1041D0001F2C03DD2A2005B0BDE8F08F00F0F4FBB2
:1041E00003907B480078002804DD039800F0F0FB82
:1041F0003C20F0E7714850F8240088BB01206F494B
:1042000041F82400039800F0E3FB2A464146384673
:10421000FFF7C5FF2B465A465146484600F02CFC96
:1042200004901198CDE9008002953A4620460E9BF5
:104230000499FFF7FFFD064636B964480078012867
:104240000CD1FFF75AFC09E000F0BEFB0390002000
:104250005A4941F82400039800F0BAFB3046BAE707
:10426000FFE7039800F0B4FB2820B4E770B50546DB
:10427000002657480078002801DD402070BD1F2D22
:1042800001D13E20FAE71F2D03DBFF2D01D02A20AC
:10429000F4E700F099FB0646FF2D03D1484800687B
:1042A00090F82450454850F8254024B9304600F095
:1042B0008FFB4320E2E7012C04D1304600F088FB5D
:1042C0003D20DBE714F8260F3E49085C61788843FF
:1042D00021783C4A505414F826091146085C30B93C
:1042E00094F8281038480078884337490870E06906
:1042F00018B12046E169FFF7FEFC0020208484F815
:10430000220084F8230033480078FF2804D2314883
:104310000078401C2F490870304600F059FBFFF729
:10432000E9FC00F051FB06462A480078002804DD2D
:1043300028480078401E27490870204600F099FB65
:1043400025480078401E2449087000201B4941F888
:104350002500A06930B90020616988611F49606942
:10436000086005E0D4E905014861D4E905108861D9
:104370001B48006860611A4804603F2084F84000D0
:10438000002141200155304600F022FB0F48007803
:10439000012801D1FFF7B1FB00206FE72DE9F041C3
:1043A000044600271F2C02D13E20BDE8F0811F2CBF
:1043B00018DBFF2C16D02A20F7E70000401B002056
:1043C000380E00202E0E00202D0E0020320E002070
:1043D000290E00202A0E0020330E0020440E00205B
:1043E0003C0E0020FF2C0BD100F0EEFA0746F248FD
:1043F000006890F82960384600F0EAFA3046D4E7C1
:1044000000F0E2FA0746ED4850F8245025B9384646
:1044100000F0DEFA4320C8E7012D04D1384600F051
:10442000D7FA3D20C1E73F2085F82900384600F043
:10443000CFFA0020B9E72DE9F04705460F461446AC
:104440004FF0000814B90020BDE8F0871F2D05DDEE
:10445000FF2D03D02A2020700020F5E71FB90C2083
:1044600020700020F0E7D6480078002803DD1120F6
:1044700020700020E8E700F0A7FA8046FF2D03D166
:10448000CD48006890F82450CC4850F8256036B9E3
:10449000404600F09DFA432020700020D4E7012E12
:1044A00006D1404600F094FA432020700020CBE76C
:1044B00006F140013846FFF7A1F88146404600F07A
:1044C00087FA002020704846BEE72DE9F0470546F0
:1044D0000F4614464FF000090CB9BDE8F0871F2DB8
:1044E00004DDFF2D02D02A202070F6E717B90C203A
:1044F0002070F2E7B2480078002802DD1220207018
:10450000EBE700F061FA8146FF2D03D1AA4800686D
:1045100090F82450A94850F825602EB9484600F07C
:1045200057FA43202070D8E7012E05D1484600F005
:104530004FFA43202070D0E73846FFF7ACF88046AA
:10454000B8F10F0F05DD484600F042FA4120207017
:10455000C3E7394606F14000FFF750F8484600F03F
:1045600037FA0020207000BFB7E770B50546002677
:104570001F2D01DB2A2070BD00F026FA06468F4869
:1045800050F8254024B9304600F022FA4620F2E7E0
:10459000012C04D1304600F01BFA4320EBE794F8DD
:1045A000220010F0080F2FD014F8220F20F008007E
:1045B000207014F8220910BB208CE0B904F1260405
:1045C000A0788049097840EA01007E490870207887
:1045D0007D49085C617840EA010014F826197A4A9E
:1045E0005054304600F0F4F978480078012809D199
:1045F000FFF783FA06E0304600F0EAF902E03046C1
:1046000000F0E6F90020B6E7304600F0E1F944207A
:10461000B1E72DE9F04706460C464FF0000A1F2E81
:1046200004DDFF2E02D02A20BDE8F0870CB9092056
:10463000FAE700202060606000F0C6F98246FF2E95
:1046400003D15D48006890F824605C4850F826501B
:1046500025B9504600F0BCF94320E5E7012D04D10F
:10466000504600F0B5F94320DEE7287C10F0010F3A
:1046700004D1504600F0ACF94520D5E70027D5F825
:104680000C90D5F80880504600F0A2F900E07F1C9D
:1046900058F8041B0029FAD0B8002060A9EB0700E5
:1046A000800060600020BFE72DE9F04105464FF033
:1046B00000081F2D02D14720BDE8F0811F2D03DB2C
:1046C000FF2D01D02A20F7E700F07EF98046FF2D6C
:1046D00005D13948006890F82450012608E0364892
:1046E000006890F82400A84201D1012600E00026CD
:1046F000324850F8254024B9404600F069F9482076
:10470000DAE7012C04D1404600F062F94320D3E7F8
:1047100094F826702C48C05D94F8271088432A49E5
:10472000C8550846C05D30B994F82810254800786F
:1047300088432449087094F8220040F0080084F867
:104740002200404600F044F9012E01D1FFF7D5F9CF
:104750000020B1E72DE9F04104460E4600271F2C4A
:1047600004DDFF2C02D02A20BDE8F0810EB909201B
:10477000FAE700F029F90746FF2C03D10E4800683C
:1047800090F824400D4850F8245025B9384600F0E0
:104790001FF92920E8E7012D04D1384600F018F967
:1047A0004320E1E7502229463046FFF739FB3846DF
:1047B00000F00EF90020D7E7380E0020401B002043
:1047C000290E00202D0E00202E0E0020320E00207B
:1047D00070B50546002676480078002800DD70BDDB
:1047E000002D23DD00F0F0F806467248006890F8CE
:1047F00026407148005D6F49096891F82710884389
:104800006D4908550846005D40B96A48006890F84F
:1048100028106A480078884368490870654800682D
:104820000584304600F0D4F8FFF767F900BFD6E7FB
:104830002DE9F04780460D4616461C465C48007838
:10484000002802DD5520BDE8F087B8F1000F04D143
:104850001DB916B90CB95420F5E73B2D01DD5120E7
:10486000F1E73B2E01DD5220EDE7B4F57A7F01DB65
:104870005320E8E74FF47A7060434FF47A71B0FB4D
:10488000F1F14FF4616008FB00F0C5EB051200EB9D
:104890008200304400EB4002C2EBC01001EBC007C5
:1048A0004FEA1749BFB23846FFF792FF0BE04FF4CB
:1048B0000040FFF78DFF4FF40040FFF789FFA9F19B
:1048C00001001FFA80F9B9F1000FF0DC0020BAE70F
:1048D00070B5054600261F2D01DB2A2070BD00F0B3
:1048E00073F80646364850F8254024B9304600F0A3
:1048F0006FF84320F2E7012C04D1304600F068F84D
:104900004320EBE7208C20B9304600F061F85020BE
:10491000E4E70020208494F8220010F0370F09D03B
:1049200014F8220F20F03700207001206070A4F1ED
:10493000220402E0002084F8230094F8220010F002
:10494000080F18D104F12604A0781C49097840EA20
:1049500001001A49087020781749085C617840EA1C
:10496000010014F82619144A5054304600F030F86B
:10497000FFF7C3F802E0304600F02AF80020ADE768
:1049800070B5002500F020F805460E48046828465A
:1049900000F01EF8204670BD70B50446002500F0FA
:1049A00013F8054607480460284600F011F870BD6A
:1049B000290E0020380E00202E0E00202D0E002083
:1049C000401B00204C0E0020EFF3108072B67047A1
:1049D00080F3108870471D484FF0FF0101700020E0
:1049E00080F309881A48012101701A484FF080515C
:1049F000016062B6FEE717484FF0805101607047D2
:104A000014484FF080510160704772B6EFF309808F
:104A100028B1203880E8F00F0F490968086000B518
:104A20000E4880475DF804EB0D480E490A78027085
:104A300009480D490A680260106890E8F00F2030BC
:104A400080F309884EF0040E62B6704722ED00E054
:104A5000320E002004ED00E0380E0020134B000859
:104A60002B0E00202C0E0020400E002070477047B7
:104A7000704770477047704770B5044610464FF056
:104A800080750560051F28462C606FF00106051F24
:104A900028462E604FF01236051F28462E604FF034
:104AA0000336051F28462E604FF00236051F2846A4
:104AB0002E607610051F28462E60051F28462960A7
:104AC0004FF01136051F28462E604FF01036051F97
:104AD00028462E604FF00936051F28462E604FF0FD
:104AE0000836051F28462E604FF00736051F28465A
:104AF0002E604FF00636051F28462E604FF0053613
:104B0000051F28462E604FF00436051F28462E60EC
:104B100070BD704770477047D2B201E000F8012BBA
:104B2000491EFBD270470022F6E710B513460A462D
:104B300004461946FFF7F0FF204610BD30B5054684
:104B40002A460B4612F8010B13F8014B08B1A0429C
:104B5000F8D01CB1002802D06D1CF1E7284630BD0A
:104B600010B5044604E00B7800F8013B03B1491C82
:104B7000521EF8D2204610BD2DE9FE4F804681EA34
:104B80000300C00F0C46009021F0004123F00045C7
:104B9000B8EB0200A94105D24046214690461C468A
:104BA0000B46024623F00040104304D14046214604
:104BB00003B0BDE8F08F270DC7F30A00C3F30A5115
:104BC0000290401A0190402866DAC3F3130040F4C3
:104BD000801B0098924620B10023D2EB030A63EBBE
:104BE0000B0B01985946C0F14002504600F05DF9A8
:104BF00006460D4650465946019A00F065F910EBFD
:104C000008006141002487EA115284EAE7731A43DD
:104C10003BD0009A3AB3019A012A4FEA075210DCBE
:104C2000001B61EB02014FF0004202EA0752CDE99E
:104C30000042001C41F5801132462B4600F099F9E4
:104C4000B6E7001B61EB0201001C41F58013001860
:104C50005B412018A2F5001747EB030140EAD5702D
:104C6000B6196D4111E06D084FEA360645EAC07588
:104C70004FEA0752001B61EB0201001C41F5801155
:104C800049084FEA30000019514132462B4603B023
:104C9000BDE8F04F00F060B9009801224000002309
:104CA000D0EB020263EBE073009821464FEAE07418
:104CB000B8EB000061EB0401E9E783F000435BE738
:104CC00081F0004158E72DE9F04D81EA030404F03A
:104CD000004B21F0004514464FF0000A23F000413C
:104CE00050EA050220D054EA01021DD0C5F30A574C
:104CF0000246C5F31303C1F31300C1F30A5640F48F
:104D0000801543F48013A7EB0608101BD64608F263
:104D1000FD3873EB050002D308F1010801E0921899
:104D20005B41B8F1000F03DA00200146BDE8F08DC9
:104D300000204FF48011064684460EE0171B73EBEB
:104D4000050705D3121B63EB050306434CEA010C70
:104D500049084FEA300092185B4150EA0107EDD153
:104D600052EA030012D082EA040083EA05010843F4
:104D700003D100224FF0004308E0101BAB4102D2E8
:104D80000122002302E06FF0010253101AEB06002B
:104D90004CEB085110EB0A0041EB0B01BDE8F04D64
:104DA00000F0DAB80EB540F2334102910021CDE9AE
:104DB00000110A460B4600F0DCF803B000BD00F01D
:104DC000004230F000400AD0C10D01F56071C0F31F
:104DD000160042EA0151C208400711437047002003
:104DE0000146704701F0004330B421F0004150EA21
:104DF000010206D00A0DA2F56072C1F31301002A68
:104E000002DC30BC00207047440F44EAC104C100FA
:104E1000E01830BC00EBC25000F068B830B50B466B
:104E2000014600202022012409E021FA02F59D42DA
:104E300005D303FA02F5491B04FA02F52844151EAE
:104E4000A2F10102F1DC30BD2DE9F05F0546002042
:104E500092469B4688460646814640241BE02846EB
:104E600041464746224600F087F953465A46C01A43
:104E7000914110D311461846224600F016F82D1A1B
:104E800067EB01084F4622460120002100F00DF893
:104E900017EB00094E41201EA4F10104DFDC484657
:104EA00031462A464346BDE8F09F202A04DB203ADB
:104EB00000FA02F1002070479140C2F1200320FA6D
:104EC00003F3194390407047202A06DBCB17203AA2
:104ED00041FA02F043EAE07306E041FA02F3D040FF
:104EE000C2F1200291400843194670470029A8BF2B
:104EF0007047401C490008BF20F00100704710B403
:104F0000B0FA80FC00FA0CF050EA010404BF10BCB7
:104F1000704749B1CCF1200421FA04F411FA0CF1E4
:104F200018BF012121430843A3EB0C01CB1D01064F
:104F3000000A002BBEBF002010BC704700EBC3501E
:104F400010440029A4BF10BC7047401C490008BF92
:104F500020F0010010BC704710B5002B08DA401C8F
:104F600041F1000192185B411A4301D120F0010088
:104F700010BD2DE9F04D92469B4611B1B1FA81F278
:104F800002E0B0FA80F220329046FFF78EFF04462E
:104F90000F4640EA0A0041EA0B0153465A460843CD
:104FA00003D120463946BDE8F08D114653EA010091
:104FB00015D0C8F14002504600F0DEF805460E4616
:104FC000504659464246FFF770FF084301D0012082
:104FD00000E00020054346EAE0762C4337430A9878
:104FE0004FEA4453A0EB08004FEAD4240A304FF0B4
:104FF000000244EA47544FEAD72502D50020014673
:10500000D1E7010510196941DDE908450019694139
:10501000BDE8F04DA0E72DE9FE4F81EA030404F05E
:10502000004421F0004100944FF0000B23F00043B6
:1050300050EA010402D052EA030404D100200146E0
:1050400003B0BDE8F08FC3F30A54C1F30A552C44F2
:10505000A4F2F3340194A0FB0254C1F3130141F410
:105060008011C3F3130343F4801301FB024400FBDC
:10507000034E840A970A44EA815447EA8357A4FB03
:10508000076802958D0A05FB07854FEA932C04FB00
:105090000C542705029D4FEA065847EA1637B5EB30
:1050A00008056EEB070C870E920E47EA811742EA5D
:1050B0008312A7FB0201B6EB0B0164EB00042B0D7E
:1050C00043EA0C335E1844EB1C50DA465146E7FBCA
:1050D0000201C5F313044FEA0B3343EA14534FEABA
:1050E0000432019C43EA0603A4F10C040294009CE0
:1050F000CDE900B4FFF73DFFA2E7C1F30A52C1F3C7
:10510000130140F2FF3341F480119A4202DA002089
:105110000146704740F233439A42A2F2334202DC26
:10512000524200F029B8FFF7C0BE000030B5002998
:1051300004DB4FF00044404264EB0101002B04DB30
:105140004FF00044524264EB0303994208BF90427F
:1051500030BD0000064C074D06E0E06840F001035A
:1051600094E8070098471034AC42F6D3FAF7E4FF0E
:105170001C5C00083C5C0008202A04DB203A21FA71
:1051800002F00021704721FA02F3D040C2F1200260
:10519000914008431946704770B501EB020410F8BE
:1051A000015B15F0070301D110F8013B2A1106D16C
:1051B00010F8012B03E010F8016B01F8016B5B1E86
:1051C000F9D12B0705D40023521E0FD401F8013B5F
:1051D000FAE710F8013B02F10202A1EB030303E03E
:1051E00013F8015B01F8015B521EF9D5A142D6D339
:1051F000002070BD0FB4054B10B503A9044A0298F6
:1052000000F0DAF810BC5DF814FB000089320008E9
:105210000C0E00200FB4084B10B504A902AA039885
:1052200000F0CAF8044602A9002000F068FC2046FD
:1052300010BC5DF814FB0000FF5A000802E008C82B
:10524000121F08C1002AFAD170477047002001E000
:1052500001C1121F002AFBD1704700002DE9FF5F3A
:10526000DDE90220010DDDF838B0024310D10F98BE
:1052700001244CA2012808D0002100980F9BC0E90E
:105280000021C0E90243BDE8FF9F6FEA0B01F4E78C
:10529000A1F2FF3144F6105041430D140F9801283C
:1052A0000ED0A5EB0B00401C4FF000043E4EDFF883
:1052B000FC90B0F1000AA04605DACAF1000717E039
:1052C000CBF10000F0E7074612E0F80707D02246CE
:1052D000334640464946FFF79EFE804689462246B1
:1052E000334610461946FFF796FE04460E467F10D9
:1052F000002FEAD1DDE90201BAF1000F42464B4628
:1053000002DAFFF788FE01E0FFF7DDFC04460E46F7
:105310000022274BFFF70AFF03D84FF0FF3001466A
:1053200007E00022234B20463146FFF725FCFFF71C
:10533000E4FE102409E0002C0ADB0A220023FFF718
:1053400083FD019B30321A55641E50EA0102F2D1EE
:10535000641C019AC4F1110314440F9A012A09D064
:105360000122084301D15B450FDD4FF0000205F13A
:1053700001050DE0084303D1A3EB0B056D1E09E009
:1053800000204FF0110B0F9088E701DA00226D1E0C
:10539000002A83D000980F99C0E90231C0E9004586
:1053A00071E7000030000000000024400000F03FE2
:1053B0000000F0430000E03F2DE9FF4F95B09B4611
:1053C00089460646002512E2252878D10024761C5D
:1053D000F94A2746012105943378203B01FA03F06E
:1053E000104202D00443761CF6E730782A2811D008
:1053F0006FF02F033078A0F13002092A16D8059AF1
:1054000044F0020402EB820203EB42021044761CD9
:105410000590EFE759F8042B0592002A03DA504271
:1054200044F40054059044F00204761C30782E2891
:1054300016D116F8010F44F004042A280DD06FF09D
:105440002F023078A0F13003092B09D807EB87032E
:1054500002EB4303C718761CF3E759F8047B761C6C
:1054600030786C280FD006DC4C2817D068280DD077
:105470006A2814D104E0742810D07A280FD10DE0E6
:1054800044F400140AE044F4801401E044F44014AD
:105490007278824202D1761C04F58014761C307832
:1054A00066280BD013DC582877D009DC002875D08B
:1054B0004528F6D04628F4D047281AD19FE118E0B5
:1054C000632835D0642879D0652812D197E17028F7
:1054D00073D008DC6728F1D069286FD06E280DD012
:1054E0006F2806D1B5E073282CD0752875D07828A0
:1054F00074D05A46179990476D1C76E1C4F3025058
:10550000022809D003280DD0D9F8001004280DD0A6
:105510000D6009F1040968E1D9F80010EA17C1E942
:105520000052F6E7D9F800100D80F2E70D70F0E7B1
:1055300019F8041B8DF8001000208DF80100EA46D0
:10554000012003E059F804AB4FF0FF3061074FF042
:10555000000102D40DE008F101018846B9420FDADA
:105560008045F8DB1AF808100029F4D108E008F1AA
:10557000010188468142FADB1AF808100029F6D1A9
:1055800005985B46A0EB080721463846179A00F0BD
:105590009EFA284400EB080507E04DE02BE10DE002
:1055A0001AF8010B5A4617999047B8F10108F7D23B
:1055B0005B4621463846179A14E142E00A220092DF
:1055C000C4F302524FF0000A022A08D059F804CB63
:1055D000032A4FEAEC710AD00DE029E02AE009F134
:1055E000070121F00702F2E802C1914609E00FFA33
:1055F0008CFC4FEAEC71042A03D14FFA8CFC4FEA81
:10560000EC71002907DA0A460021DCF1000C61EB9D
:1056100002012D2202E0220504D52B228DF8042060
:10562000012203E0E20701D02022F7E7904653E091
:105630000A2102E010220DE010214FF0000A009133
:105640000BE010224FF0000A44F0040408270092F7
:1056500003E008224FF0000A0092C4F30252022A2B
:1056600005D059F804CB0021032A08D009E009F13C
:10567000070121F00702F2E802C1914605E01FFA96
:105680008CFC042A01D10CF0FF0C4FF0000822071B
:1056900022D5702827D0009B83F0100353EA0A0319
:1056A00009D15CEA010206D030228DF804208DF881
:1056B000050002229046009B83F0080353EA0A0388
:1056C0000AD15CEA010201D1620705D530228DF8CA
:1056D00004204FF001087F1E582809D037A00390FE
:1056E0000EA8029013E040228DF804200122E1E789
:1056F00037A0F4E753466046009AFFF7A5FB8446BF
:105700000398825C0298A0F10100029002705CEAAA
:105710000100EFD1029806A9A1EB000000F1200AD8
:10572000600702D524F4803400E00127574502DDEC
:10573000A7EB0A0000E0002000EB0A0100900598AA
:105740004144A0EB01000590E00306D45B462146EE
:10575000179A059800F0BBF90544002706E001A858
:105760005A46C05D179990476D1C7F1C4745F6DB74
:10577000E0030CD55B462146179A059800F0A7F97F
:10578000054404E030205A46179990476D1C009953
:10579000481E00900029F5DC08E0029802995A465C
:1057A0000078491C0291179990476D1CBAF10001CD
:1057B000AAF1010AF1DC6BE1092801003031323332
:1057C000343536373839616263646566000000003D
:1057D0003031323334353637383941424344454627
:1057E0000000000000F060F9054406F10106307881
:1057F00000287FF4E9AD19B02846BDE8F08F6207B4
:1058000000D4062709F1070222F0070CFCE8022366
:10581000E14603F000485FEA080C02D00FF27C2C4E
:105820000DE05FEA045C02D50FF2742C07E05FEA3A
:10583000C47C02D00FF26C2C01E0AFF2700C4FF080
:10584000FF3823F00043CDF850C065280CD006DCAB
:10585000452809D046281DD047283ED13EE066287D
:1058600018D0672839D139E00021112F01DB112030
:1058700000E0781CCDE9000106A90EA8FFF7EEFCB8
:10588000DDE90F010E9A03910021009207F1010A50
:1058900004914EE04FF000400097CDE9011006A9B9
:1058A0000EA8FFF7DBFCDDE90F0203920E9B1199B6
:1058B0000022DDF80CA00093049219B907F1010150
:1058C00000EB010AB7EB0A0004D4C0F1FF3007F186
:1058D000010A0490AAEB0700019046E0012F00DACC
:1058E00001270021112F01DD112000E03846CDE90C
:1058F000000106A90EA8FFF7B1FCDDE90F010E9A21
:105900000391002104910092BA4621070CD4039917
:10591000514500DA8A46BAF1010F05DD009AAAF175
:105920000101515C302908D0B84202DA10F1040FAD
:1059300006DA0121CDE9011017E0AAF10101E9E73A
:10594000002805DC049901440491AAEB000102E05F
:10595000411C514500DD8A460499A0EB010000F18D
:10596000010001904FF000400290200704D40198FC
:10597000504501DBCDF8048000208DF84F000298DF
:105980000DF14F07B0F1004F25D02B200E9002985B
:105990004FF0020800280CDA404202902D200E90B1
:1059A00007E00A210298FFF739FA3031029007F830
:1059B000011DB8F10001A8F10108F2DC02980028ED
:1059C000EFD1791E0E980870307800F0200040F07A
:1059D000450007F8020D12A8A0EB070000F1070828
:1059E0001498007800B1012000EB0A01019801EB46
:1059F000E07105984144A0EB0100A0F10100059081
:105A0000E00306D45B462146179A059800F05FF83C
:105A100005441498007820B15A461799904705F12B
:105A20000105E00323D55B462146179A059800F04F
:105A30004EF805441BE00498002807DBDDE903016C
:105A4000884203DD0098405C179901E017993020E7
:105A50005A46904704986D1C401C04900198401EC3
:105A6000019004D12E205A46179990476D1CBAF127
:105A70000001AAF1010ADEDC05E017F8010B5A4625
:105A8000179990476D1CB8F10001A8F10108F4DCEA
:105A90005B462146179A0598A4E600002D000000F9
:105AA0002B000000200000002DE9F04104460025F5
:105AB0001E461746880405D406E039462020B04724
:105AC00005F10105641EF8D52846BDE8F0812DE9F1
:105AD000F041044600251E469046C80301D53027F4
